{"contracts/User.sol":{"Users":{"abi":[{"inputs":[{"internalType":"uint256","name":"UserID","type":"uint256"}],"name":"checkForValidSignUp","outputs":[{"internalType":"bool","name":"","type":"bool"}],"stateMutability":"view","type":"function"},{"inputs":[{"internalType":"uint256","name":"UserID","type":"uint256"}],"name":"getMap","outputs":[{"internalType":"string","name":"","type":"string"}],"stateMutability":"view","type":"function"},{"inputs":[{"internalType":"uint256","name":"UserID","type":"uint256"}],"name":"getUser","outputs":[{"components":[{"internalType":"string","name":"firstname","type":"string"},{"internalType":"string","name":"lastname","type":"string"},{"internalType":"uint256","name":"UserID","type":"uint256"},{"internalType":"uint256","name":"age","type":"uint256"},{"internalType":"string","name":"houseaddress","type":"string"},{"internalType":"string","name":"gender","type":"string"},{"internalType":"string","name":"email","type":"string"},{"internalType":"string","name":"aadhaarNumber","type":"string"},{"internalType":"string","name":"imageUrl","type":"string"},{"internalType":"string","name":"voterConstituency","type":"string"},{"internalType":"address","name":"userAddress","type":"address"}],"internalType":"struct Users.User","name":"","type":"tuple"}],"stateMutability":"view","type":"function"},{"inputs":[],"name":"getUsers","outputs":[{"components":[{"internalType":"string","name":"firstname","type":"string"},{"internalType":"string","name":"lastname","type":"string"},{"internalType":"uint256","name":"UserID","type":"uint256"},{"internalType":"uint256","name":"age","type":"uint256"},{"internalType":"string","name":"houseaddress","type":"string"},{"internalType":"string","name":"gender","type":"string"},{"internalType":"string","name":"email","type":"string"},{"internalType":"string","name":"aadhaarNumber","type":"string"},{"internalType":"string","name":"imageUrl","type":"string"},{"internalType":"string","name":"voterConstituency","type":"string"},{"internalType":"address","name":"userAddress","type":"address"}],"internalType":"struct Users.User[]","name":"","type":"tuple[]"}],"stateMutability":"view","type":"function"},{"inputs":[{"internalType":"uint256","name":"UserID","type":"uint256"},{"internalType":"string","name":"password","type":"string"}],"name":"login","outputs":[{"components":[{"internalType":"string","name":"firstname","type":"string"},{"internalType":"string","name":"lastname","type":"string"},{"internalType":"uint256","name":"UserID","type":"uint256"},{"internalType":"uint256","name":"age","type":"uint256"},{"internalType":"string","name":"houseaddress","type":"string"},{"internalType":"string","name":"gender","type":"string"},{"internalType":"string","name":"email","type":"string"},{"internalType":"string","name":"aadhaarNumber","type":"string"},{"internalType":"string","name":"imageUrl","type":"string"},{"internalType":"string","name":"voterConstituency","type":"string"},{"internalType":"address","name":"userAddress","type":"address"}],"internalType":"struct Users.User","name":"","type":"tuple"}],"stateMutability":"view","type":"function"},{"inputs":[{"internalType":"string","name":"firstname","type":"string"},{"internalType":"string","name":"lastname","type":"string"},{"internalType":"uint256","name":"UserID","type":"uint256"},{"internalType":"uint256","name":"age","type":"uint256"},{"internalType":"string","name":"password","type":"string"},{"internalType":"string","name":"houseaddress","type":"string"},{"internalType":"string","name":"gender","type":"string"},{"internalType":"string","name":"email","type":"string"},{"internalType":"string","name":"aadhaarNumber","type":"string"},{"internalType":"string","name":"imageUrl","type":"string"},{"internalType":"string","name":"voterConstituency","type":"string"}],"name":"signUp","outputs":[],"stateMutability":"nonpayable","type":"function"}],"evm":{"bytecode":{"linkReferences":{},"object":"608060405234801561001057600080fd5b506124bb806100206000396000f3fe608060405234801561001057600080fd5b50600436106100615760003560e01c8062ce8e3e14610066578063025799f0146100845780632c4f5a17146100b45780634d4ebb0f146100e457806353f2dc9914610100578063b0467deb14610130575b600080fd5b61006e610160565b60405161007b91906118e9565b60405180910390f35b61009e6004803603810190610099919061194b565b6106ba565b6040516100ab91906119c2565b60405180910390f35b6100ce60048036038101906100c99190611b19565b61075e565b6040516100db9190611c95565b60405180910390f35b6100fe60048036038101906100f99190611cb7565b610d5c565b005b61011a6004803603810190610115919061194b565b610f7c565b6040516101279190611ec2565b60405180910390f35b61014a6004803603810190610145919061194b565b610fe5565b6040516101579190611c95565b60405180910390f35b60606001805480602002602001604051908101604052809291908181526020016000905b828210156106b157838290600052602060002090600b0201604051806101600160405290816000820180546101b890611f0c565b80601f01602080910402602001604051908101604052809291908181526020018280546101e490611f0c565b80156102315780601f1061020657610100808354040283529160200191610231565b820191906000526020600020905b81548152906001019060200180831161021457829003601f168201915b5050505050815260200160018201805461024a90611f0c565b80601f016020809104026020016040519081016040528092919081815260200182805461027690611f0c565b80156102c35780601f10610298576101008083540402835291602001916102c3565b820191906000526020600020905b8154815290600101906020018083116102a657829003601f168201915b5050505050815260200160028201548152602001600382015481526020016004820180546102f090611f0c565b80601f016020809104026020016040519081016040528092919081815260200182805461031c90611f0c565b80156103695780601f1061033e57610100808354040283529160200191610369565b820191906000526020600020905b81548152906001019060200180831161034c57829003601f168201915b5050505050815260200160058201805461038290611f0c565b80601f01602080910402602001604051908101604052809291908181526020018280546103ae90611f0c565b80156103fb5780601f106103d0576101008083540402835291602001916103fb565b820191906000526020600020905b8154815290600101906020018083116103de57829003601f168201915b5050505050815260200160068201805461041490611f0c565b80601f016020809104026020016040519081016040528092919081815260200182805461044090611f0c565b801561048d5780601f106104625761010080835404028352916020019161048d565b820191906000526020600020905b81548152906001019060200180831161047057829003601f168201915b505050505081526020016007820180546104a690611f0c565b80601f01602080910402602001604051908101604052809291908181526020018280546104d290611f0c565b801561051f5780601f106104f45761010080835404028352916020019161051f565b820191906000526020600020905b81548152906001019060200180831161050257829003601f168201915b5050505050815260200160088201805461053890611f0c565b80601f016020809104026020016040519081016040528092919081815260200182805461056490611f0c565b80156105b15780601f10610586576101008083540402835291602001916105b1565b820191906000526020600020905b81548152906001019060200180831161059457829003601f168201915b505050505081526020016009820180546105ca90611f0c565b80601f01602080910402602001604051908101604052809291908181526020018280546105f690611f0c565b80156106435780601f1061061857610100808354040283529160200191610643565b820191906000526020600020905b81548152906001019060200180831161062657829003601f168201915b50505050508152602001600a820160009054906101000a900473ffffffffffffffffffffffffffffffffffffffff1673ffffffffffffffffffffffffffffffffffffffff1673ffffffffffffffffffffffffffffffffffffffff168152505081526020019060010190610184565b50505050905090565b606060008083815260200190815260200160002080546106d990611f0c565b80601f016020809104026020016040519081016040528092919081815260200182805461070590611f0c565b80156107525780601f1061072757610100808354040283529160200191610752565b820191906000526020600020905b81548152906001019060200180831161073557829003601f168201915b50505050509050919050565b6107666115ad565b818051906020012060008085815260200190815260200160002060405161078d9190611fe0565b604051809103902003610d1b5760005b600180549050811015610d195783600182815481106107bf576107be611ff7565b5b90600052602060002090600b02016002015403610d0657600181815481106107ea576107e9611ff7565b5b90600052602060002090600b02016040518061016001604052908160008201805461081490611f0c565b80601f016020809104026020016040519081016040528092919081815260200182805461084090611f0c565b801561088d5780601f106108625761010080835404028352916020019161088d565b820191906000526020600020905b81548152906001019060200180831161087057829003601f168201915b505050505081526020016001820180546108a690611f0c565b80601f01602080910402602001604051908101604052809291908181526020018280546108d290611f0c565b801561091f5780601f106108f45761010080835404028352916020019161091f565b820191906000526020600020905b81548152906001019060200180831161090257829003601f168201915b50505050508152602001600282015481526020016003820154815260200160048201805461094c90611f0c565b80601f016020809104026020016040519081016040528092919081815260200182805461097890611f0c565b80156109c55780601f1061099a576101008083540402835291602001916109c5565b820191906000526020600020905b8154815290600101906020018083116109a857829003601f168201915b505050505081526020016005820180546109de90611f0c565b80601f0160208091040260200160405190810160405280929190818152602001828054610a0a90611f0c565b8015610a575780601f10610a2c57610100808354040283529160200191610a57565b820191906000526020600020905b815481529060010190602001808311610a3a57829003601f168201915b50505050508152602001600682018054610a7090611f0c565b80601f0160208091040260200160405190810160405280929190818152602001828054610a9c90611f0c565b8015610ae95780601f10610abe57610100808354040283529160200191610ae9565b820191906000526020600020905b815481529060010190602001808311610acc57829003601f168201915b50505050508152602001600782018054610b0290611f0c565b80601f0160208091040260200160405190810160405280929190818152602001828054610b2e90611f0c565b8015610b7b5780601f10610b5057610100808354040283529160200191610b7b565b820191906000526020600020905b815481529060010190602001808311610b5e57829003601f168201915b50505050508152602001600882018054610b9490611f0c565b80601f0160208091040260200160405190810160405280929190818152602001828054610bc090611f0c565b8015610c0d5780601f10610be257610100808354040283529160200191610c0d565b820191906000526020600020905b815481529060010190602001808311610bf057829003601f168201915b50505050508152602001600982018054610c2690611f0c565b80601f0160208091040260200160405190810160405280929190818152602001828054610c5290611f0c565b8015610c9f5780601f10610c7457610100808354040283529160200191610c9f565b820191906000526020600020905b815481529060010190602001808311610c8257829003601f168201915b50505050508152602001600a820160009054906101000a900473ffffffffffffffffffffffffffffffffffffffff1673ffffffffffffffffffffffffffffffffffffffff1673ffffffffffffffffffffffffffffffffffffffff1681525050915050610d56565b8080610d1190612055565b91505061079d565b505b6040517f08c379a0000000000000000000000000000000000000000000000000000000008152600401610d4d9061210f565b60405180910390fd5b92915050565b610d6589610f7c565b15610dac576000610dab576040517f08c379a0000000000000000000000000000000000000000000000000000000008152600401610da29061217b565b60405180910390fd5b5b60006040518061016001604052808d81526020018c81526020018b81526020018a81526020018881526020018781526020018681526020018581526020018481526020018381526020013373ffffffffffffffffffffffffffffffffffffffff16815250905060018190806001815401808255809150506001900390600052602060002090600b02016000909190919091506000820151816000019081610e539190612347565b506020820151816001019081610e699190612347565b5060408201518160020155606082015181600301556080820151816004019081610e939190612347565b5060a0820151816005019081610ea99190612347565b5060c0820151816006019081610ebf9190612347565b5060e0820151816007019081610ed59190612347565b50610100820151816008019081610eec9190612347565b50610120820151816009019081610f039190612347565b5061014082015181600a0160006101000a81548173ffffffffffffffffffffffffffffffffffffffff021916908373ffffffffffffffffffffffffffffffffffffffff1602179055505050876000808c81526020019081526020016000209081610f6d9190612347565b50505050505050505050505050565b600080600090505b600180549050811015610fda578260018281548110610fa657610fa5611ff7565b5b90600052602060002090600b02016002015403610fc7576001915050610fe0565b8080610fd290612055565b915050610f84565b50600090505b919050565b610fed6115ad565b60005b60018054905081101561156c57826001828154811061101257611011611ff7565b5b90600052602060002090600b02016002015403611559576001818154811061103d5761103c611ff7565b5b90600052602060002090600b02016040518061016001604052908160008201805461106790611f0c565b80601f016020809104026020016040519081016040528092919081815260200182805461109390611f0c565b80156110e05780601f106110b5576101008083540402835291602001916110e0565b820191906000526020600020905b8154815290600101906020018083116110c357829003601f168201915b505050505081526020016001820180546110f990611f0c565b80601f016020809104026020016040519081016040528092919081815260200182805461112590611f0c565b80156111725780601f1061114757610100808354040283529160200191611172565b820191906000526020600020905b81548152906001019060200180831161115557829003601f168201915b50505050508152602001600282015481526020016003820154815260200160048201805461119f90611f0c565b80601f01602080910402602001604051908101604052809291908181526020018280546111cb90611f0c565b80156112185780601f106111ed57610100808354040283529160200191611218565b820191906000526020600020905b8154815290600101906020018083116111fb57829003601f168201915b5050505050815260200160058201805461123190611f0c565b80601f016020809104026020016040519081016040528092919081815260200182805461125d90611f0c565b80156112aa5780601f1061127f576101008083540402835291602001916112aa565b820191906000526020600020905b81548152906001019060200180831161128d57829003601f168201915b505050505081526020016006820180546112c390611f0c565b80601f01602080910402602001604051908101604052809291908181526020018280546112ef90611f0c565b801561133c5780601f106113115761010080835404028352916020019161133c565b820191906000526020600020905b81548152906001019060200180831161131f57829003601f168201915b5050505050815260200160078201805461135590611f0c565b80601f016020809104026020016040519081016040528092919081815260200182805461138190611f0c565b80156113ce5780601f106113a3576101008083540402835291602001916113ce565b820191906000526020600020905b8154815290600101906020018083116113b157829003601f168201915b505050505081526020016008820180546113e790611f0c565b80601f016020809104026020016040519081016040528092919081815260200182805461141390611f0c565b80156114605780601f1061143557610100808354040283529160200191611460565b820191906000526020600020905b81548152906001019060200180831161144357829003601f168201915b5050505050815260200160098201805461147990611f0c565b80601f01602080910402602001604051908101604052809291908181526020018280546114a590611f0c565b80156114f25780601f106114c7576101008083540402835291602001916114f2565b820191906000526020600020905b8154815290600101906020018083116114d557829003601f168201915b50505050508152602001600a820160009054906101000a900473ffffffffffffffffffffffffffffffffffffffff1673ffffffffffffffffffffffffffffffffffffffff1673ffffffffffffffffffffffffffffffffffffffff16815250509150506115a8565b808061156490612055565b915050610ff0565b506040517f08c379a000000000000000000000000000000000000000000000000000000000815260040161159f90612465565b60405180910390fd5b919050565b60405180610160016040528060608152602001606081526020016000815260200160008152602001606081526020016060815260200160608152602001606081526020016060815260200160608152602001600073ffffffffffffffffffffffffffffffffffffffff1681525090565b600081519050919050565b600082825260208201905092915050565b6000819050602082019050919050565b600081519050919050565b600082825260208201905092915050565b60005b83811015611683578082015181840152602081019050611668565b60008484015250505050565b6000601f19601f8301169050919050565b60006116ab82611649565b6116b58185611654565b93506116c5818560208601611665565b6116ce8161168f565b840191505092915050565b6000819050919050565b6116ec816116d9565b82525050565b600073ffffffffffffffffffffffffffffffffffffffff82169050919050565b600061171d826116f2565b9050919050565b61172d81611712565b82525050565b600061016083016000830151848203600086015261175182826116a0565b9150506020830151848203602086015261176b82826116a0565b915050604083015161178060408601826116e3565b50606083015161179360608601826116e3565b50608083015184820360808601526117ab82826116a0565b91505060a083015184820360a08601526117c582826116a0565b91505060c083015184820360c08601526117df82826116a0565b91505060e083015184820360e08601526117f982826116a0565b91505061010083015184820361010086015261181582826116a0565b91505061012083015184820361012086015261183182826116a0565b915050610140830151611848610140860182611724565b508091505092915050565b600061185f8383611733565b905092915050565b6000602082019050919050565b600061187f8261161d565b6118898185611628565b93508360208202850161189b85611639565b8060005b858110156118d757848403895281516118b88582611853565b94506118c383611867565b925060208a0199505060018101905061189f565b50829750879550505050505092915050565b600060208201905081810360008301526119038184611874565b905092915050565b6000604051905090565b600080fd5b600080fd5b611928816116d9565b811461193357600080fd5b50565b6000813590506119458161191f565b92915050565b60006020828403121561196157611960611915565b5b600061196f84828501611936565b91505092915050565b600082825260208201905092915050565b600061199482611649565b61199e8185611978565b93506119ae818560208601611665565b6119b78161168f565b840191505092915050565b600060208201905081810360008301526119dc8184611989565b905092915050565b600080fd5b600080fd5b7f4e487b7100000000000000000000000000000000000000000000000000000000600052604160045260246000fd5b611a268261168f565b810181811067ffffffffffffffff82111715611a4557611a446119ee565b5b80604052505050565b6000611a5861190b565b9050611a648282611a1d565b919050565b600067ffffffffffffffff821115611a8457611a836119ee565b5b611a8d8261168f565b9050602081019050919050565b82818337600083830152505050565b6000611abc611ab784611a69565b611a4e565b905082815260208101848484011115611ad857611ad76119e9565b5b611ae3848285611a9a565b509392505050565b600082601f830112611b0057611aff6119e4565b5b8135611b10848260208601611aa9565b91505092915050565b60008060408385031215611b3057611b2f611915565b5b6000611b3e85828601611936565b925050602083013567ffffffffffffffff811115611b5f57611b5e61191a565b5b611b6b85828601611aeb565b9150509250929050565b6000610160830160008301518482036000860152611b9382826116a0565b91505060208301518482036020860152611bad82826116a0565b9150506040830151611bc260408601826116e3565b506060830151611bd560608601826116e3565b5060808301518482036080860152611bed82826116a0565b91505060a083015184820360a0860152611c0782826116a0565b91505060c083015184820360c0860152611c2182826116a0565b91505060e083015184820360e0860152611c3b82826116a0565b915050610100830151848203610100860152611c5782826116a0565b915050610120830151848203610120860152611c7382826116a0565b915050610140830151611c8a610140860182611724565b508091505092915050565b60006020820190508181036000830152611caf8184611b75565b905092915050565b60008060008060008060008060008060006101608c8e031215611cdd57611cdc611915565b5b60008c013567ffffffffffffffff811115611cfb57611cfa61191a565b5b611d078e828f01611aeb565b9b505060208c013567ffffffffffffffff811115611d2857611d2761191a565b5b611d348e828f01611aeb565b9a50506040611d458e828f01611936565b9950506060611d568e828f01611936565b98505060808c013567ffffffffffffffff811115611d7757611d7661191a565b5b611d838e828f01611aeb565b97505060a08c013567ffffffffffffffff811115611da457611da361191a565b5b611db08e828f01611aeb565b96505060c08c013567ffffffffffffffff811115611dd157611dd061191a565b5b611ddd8e828f01611aeb565b95505060e08c013567ffffffffffffffff811115611dfe57611dfd61191a565b5b611e0a8e828f01611aeb565b9450506101008c013567ffffffffffffffff811115611e2c57611e2b61191a565b5b611e388e828f01611aeb565b9350506101208c013567ffffffffffffffff811115611e5a57611e5961191a565b5b611e668e828f01611aeb565b9250506101408c013567ffffffffffffffff811115611e8857611e8761191a565b5b611e948e828f01611aeb565b9150509295989b509295989b9093969950565b60008115159050919050565b611ebc81611ea7565b82525050565b6000602082019050611ed76000830184611eb3565b92915050565b7f4e487b7100000000000000000000000000000000000000000000000000000000600052602260045260246000fd5b60006002820490506001821680611f2457607f821691505b602082108103611f3757611f36611edd565b5b50919050565b600081905092915050565b60008190508160005260206000209050919050565b60008154611f6a81611f0c565b611f748186611f3d565b94506001821660008114611f8f5760018114611fa457611fd7565b60ff1983168652811515820286019350611fd7565b611fad85611f48565b60005b83811015611fcf57815481890152600182019150602081019050611fb0565b838801955050505b50505092915050565b6000611fec8284611f5d565b915081905092915050565b7f4e487b7100000000000000000000000000000000000000000000000000000000600052603260045260246000fd5b7f4e487b7100000000000000000000000000000000000000000000000000000000600052601160045260246000fd5b6000612060826116d9565b91507fffffffffffffffffffffffffffffffffffffffffffffffffffffffffffffffff820361209257612091612026565b5b600182019050919050565b7f55736572206e6f7420666f756e64206f722070617373776f726420697320696e60008201527f636f727265637400000000000000000000000000000000000000000000000000602082015250565b60006120f9602783611978565b91506121048261209d565b604082019050919050565b60006020820190508181036000830152612128816120ec565b9050919050565b7f4e6f7420616c6c6f776564000000000000000000000000000000000000000000600082015250565b6000612165600b83611978565b91506121708261212f565b602082019050919050565b6000602082019050818103600083015261219481612158565b9050919050565b60008190508160005260206000209050919050565b60006020601f8301049050919050565b600082821b905092915050565b6000600883026121fd7fffffffffffffffffffffffffffffffffffffffffffffffffffffffffffffffff826121c0565b61220786836121c0565b95508019841693508086168417925050509392505050565b6000819050919050565b600061224461223f61223a846116d9565b61221f565b6116d9565b9050919050565b6000819050919050565b61225e83612229565b61227261226a8261224b565b8484546121cd565b825550505050565b600090565b61228761227a565b612292818484612255565b505050565b5b818110156122b6576122ab60008261227f565b600181019050612298565b5050565b601f8211156122fb576122cc8161219b565b6122d5846121b0565b810160208510156122e4578190505b6122f86122f0856121b0565b830182612297565b50505b505050565b600082821c905092915050565b600061231e60001984600802612300565b1980831691505092915050565b6000612337838361230d565b9150826002028217905092915050565b61235082611649565b67ffffffffffffffff811115612369576123686119ee565b5b6123738254611f0c565b61237e8282856122ba565b600060209050601f8311600181146123b1576000841561239f578287015190505b6123a9858261232b565b865550612411565b601f1984166123bf8661219b565b60005b828110156123e7578489015182556001820191506020850194506020810190506123c2565b868310156124045784890151612400601f89168261230d565b8355505b6001600288020188555050505b505050505050565b7f55736572206e6f7420666f756e64000000000000000000000000000000000000600082015250565b600061244f600e83611978565b915061245a82612419565b602082019050919050565b6000602082019050818103600083015261247e81612442565b905091905056fea2646970667358221220d7525719ddebc5815ba266c190694ed2bfa6c12ccd8b9c21ecc0bef77a79674664736f6c63430008110033","opcodes":"PUSH1 0x80 PUSH1 0x40 MSTORE CALLVALUE DUP1 ISZERO PUSH2 0x10 JUMPI PUSH1 0x0 DUP1 REVERT JUMPDEST POP PUSH2 0x24BB DUP1 PUSH2 0x20 PUSH1 0x0 CODECOPY PUSH1 0x0 RETURN INVALID PUSH1 0x80 PUSH1 0x40 MSTORE CALLVALUE DUP1 ISZERO PUSH2 0x10 JUMPI PUSH1 0x0 DUP1 REVERT JUMPDEST POP PUSH1 0x4 CALLDATASIZE LT PUSH2 0x61 JUMPI PUSH1 0x0 CALLDATALOAD PUSH1 0xE0 SHR DUP1 PUSH3 0xCE8E3E EQ PUSH2 0x66 JUMPI DUP1 PUSH4 0x25799F0 EQ PUSH2 0x84 JUMPI DUP1 PUSH4 0x2C4F5A17 EQ PUSH2 0xB4 JUMPI DUP1 PUSH4 0x4D4EBB0F EQ PUSH2 0xE4 JUMPI DUP1 PUSH4 0x53F2DC99 EQ PUSH2 0x100 JUMPI DUP1 PUSH4 0xB0467DEB EQ PUSH2 0x130 JUMPI JUMPDEST PUSH1 0x0 DUP1 REVERT JUMPDEST PUSH2 0x6E PUSH2 0x160 JUMP JUMPDEST PUSH1 0x40 MLOAD PUSH2 0x7B SWAP2 SWAP1 PUSH2 0x18E9 JUMP JUMPDEST PUSH1 0x40 MLOAD DUP1 SWAP2 SUB SWAP1 RETURN JUMPDEST PUSH2 0x9E PUSH1 0x4 DUP1 CALLDATASIZE SUB DUP2 ADD SWAP1 PUSH2 0x99 SWAP2 SWAP1 PUSH2 0x194B JUMP JUMPDEST PUSH2 0x6BA JUMP JUMPDEST PUSH1 0x40 MLOAD PUSH2 0xAB SWAP2 SWAP1 PUSH2 0x19C2 JUMP JUMPDEST PUSH1 0x40 MLOAD DUP1 SWAP2 SUB SWAP1 RETURN JUMPDEST PUSH2 0xCE PUSH1 0x4 DUP1 CALLDATASIZE SUB DUP2 ADD SWAP1 PUSH2 0xC9 SWAP2 SWAP1 PUSH2 0x1B19 JUMP JUMPDEST PUSH2 0x75E JUMP JUMPDEST PUSH1 0x40 MLOAD PUSH2 0xDB SWAP2 SWAP1 PUSH2 0x1C95 JUMP JUMPDEST PUSH1 0x40 MLOAD DUP1 SWAP2 SUB SWAP1 RETURN JUMPDEST PUSH2 0xFE PUSH1 0x4 DUP1 CALLDATASIZE SUB DUP2 ADD SWAP1 PUSH2 0xF9 SWAP2 SWAP1 PUSH2 0x1CB7 JUMP JUMPDEST PUSH2 0xD5C JUMP JUMPDEST STOP JUMPDEST PUSH2 0x11A PUSH1 0x4 DUP1 CALLDATASIZE SUB DUP2 ADD SWAP1 PUSH2 0x115 SWAP2 SWAP1 PUSH2 0x194B JUMP JUMPDEST PUSH2 0xF7C JUMP JUMPDEST PUSH1 0x40 MLOAD PUSH2 0x127 SWAP2 SWAP1 PUSH2 0x1EC2 JUMP JUMPDEST PUSH1 0x40 MLOAD DUP1 SWAP2 SUB SWAP1 RETURN JUMPDEST PUSH2 0x14A PUSH1 0x4 DUP1 CALLDATASIZE SUB DUP2 ADD SWAP1 PUSH2 0x145 SWAP2 SWAP1 PUSH2 0x194B JUMP JUMPDEST PUSH2 0xFE5 JUMP JUMPDEST PUSH1 0x40 MLOAD PUSH2 0x157 SWAP2 SWAP1 PUSH2 0x1C95 JUMP JUMPDEST PUSH1 0x40 MLOAD DUP1 SWAP2 SUB SWAP1 RETURN JUMPDEST PUSH1 0x60 PUSH1 0x1 DUP1 SLOAD DUP1 PUSH1 0x20 MUL PUSH1 0x20 ADD PUSH1 0x40 MLOAD SWAP1 DUP2 ADD PUSH1 0x40 MSTORE DUP1 SWAP3 SWAP2 SWAP1 DUP2 DUP2 MSTORE PUSH1 0x20 ADD PUSH1 0x0 SWAP1 JUMPDEST DUP3 DUP3 LT ISZERO PUSH2 0x6B1 JUMPI DUP4 DUP3 SWAP1 PUSH1 0x0 MSTORE PUSH1 0x20 PUSH1 0x0 KECCAK256 SWAP1 PUSH1 0xB MUL ADD PUSH1 0x40 MLOAD DUP1 PUSH2 0x160 ADD PUSH1 0x40 MSTORE SWAP1 DUP2 PUSH1 0x0 DUP3 ADD DUP1 SLOAD PUSH2 0x1B8 SWAP1 PUSH2 0x1F0C JUMP JUMPDEST DUP1 PUSH1 0x1F ADD PUSH1 0x20 DUP1 SWAP2 DIV MUL PUSH1 0x20 ADD PUSH1 0x40 MLOAD SWAP1 DUP2 ADD PUSH1 0x40 MSTORE DUP1 SWAP3 SWAP2 SWAP1 DUP2 DUP2 MSTORE PUSH1 0x20 ADD DUP3 DUP1 SLOAD PUSH2 0x1E4 SWAP1 PUSH2 0x1F0C JUMP JUMPDEST DUP1 ISZERO PUSH2 0x231 JUMPI DUP1 PUSH1 0x1F LT PUSH2 0x206 JUMPI PUSH2 0x100 DUP1 DUP4 SLOAD DIV MUL DUP4 MSTORE SWAP2 PUSH1 0x20 ADD SWAP2 PUSH2 0x231 JUMP JUMPDEST DUP3 ADD SWAP2 SWAP1 PUSH1 0x0 MSTORE PUSH1 0x20 PUSH1 0x0 KECCAK256 SWAP1 JUMPDEST DUP2 SLOAD DUP2 MSTORE SWAP1 PUSH1 0x1 ADD SWAP1 PUSH1 0x20 ADD DUP1 DUP4 GT PUSH2 0x214 JUMPI DUP3 SWAP1 SUB PUSH1 0x1F AND DUP3 ADD SWAP2 JUMPDEST POP POP POP POP POP DUP2 MSTORE PUSH1 0x20 ADD PUSH1 0x1 DUP3 ADD DUP1 SLOAD PUSH2 0x24A SWAP1 PUSH2 0x1F0C JUMP JUMPDEST DUP1 PUSH1 0x1F ADD PUSH1 0x20 DUP1 SWAP2 DIV MUL PUSH1 0x20 ADD PUSH1 0x40 MLOAD SWAP1 DUP2 ADD PUSH1 0x40 MSTORE DUP1 SWAP3 SWAP2 SWAP1 DUP2 DUP2 MSTORE PUSH1 0x20 ADD DUP3 DUP1 SLOAD PUSH2 0x276 SWAP1 PUSH2 0x1F0C JUMP JUMPDEST DUP1 ISZERO PUSH2 0x2C3 JUMPI DUP1 PUSH1 0x1F LT PUSH2 0x298 JUMPI PUSH2 0x100 DUP1 DUP4 SLOAD DIV MUL DUP4 MSTORE SWAP2 PUSH1 0x20 ADD SWAP2 PUSH2 0x2C3 JUMP JUMPDEST DUP3 ADD SWAP2 SWAP1 PUSH1 0x0 MSTORE PUSH1 0x20 PUSH1 0x0 KECCAK256 SWAP1 JUMPDEST DUP2 SLOAD DUP2 MSTORE SWAP1 PUSH1 0x1 ADD SWAP1 PUSH1 0x20 ADD DUP1 DUP4 GT PUSH2 0x2A6 JUMPI DUP3 SWAP1 SUB PUSH1 0x1F AND DUP3 ADD SWAP2 JUMPDEST POP POP POP POP POP DUP2 MSTORE PUSH1 0x20 ADD PUSH1 0x2 DUP3 ADD SLOAD DUP2 MSTORE PUSH1 0x20 ADD PUSH1 0x3 DUP3 ADD SLOAD DUP2 MSTORE PUSH1 0x20 ADD PUSH1 0x4 DUP3 ADD DUP1 SLOAD PUSH2 0x2F0 SWAP1 PUSH2 0x1F0C JUMP JUMPDEST DUP1 PUSH1 0x1F ADD PUSH1 0x20 DUP1 SWAP2 DIV MUL PUSH1 0x20 ADD PUSH1 0x40 MLOAD SWAP1 DUP2 ADD PUSH1 0x40 MSTORE DUP1 SWAP3 SWAP2 SWAP1 DUP2 DUP2 MSTORE PUSH1 0x20 ADD DUP3 DUP1 SLOAD PUSH2 0x31C SWAP1 PUSH2 0x1F0C JUMP JUMPDEST DUP1 ISZERO PUSH2 0x369 JUMPI DUP1 PUSH1 0x1F LT PUSH2 0x33E JUMPI PUSH2 0x100 DUP1 DUP4 SLOAD DIV MUL DUP4 MSTORE SWAP2 PUSH1 0x20 ADD SWAP2 PUSH2 0x369 JUMP JUMPDEST DUP3 ADD SWAP2 SWAP1 PUSH1 0x0 MSTORE PUSH1 0x20 PUSH1 0x0 KECCAK256 SWAP1 JUMPDEST DUP2 SLOAD DUP2 MSTORE SWAP1 PUSH1 0x1 ADD SWAP1 PUSH1 0x20 ADD DUP1 DUP4 GT PUSH2 0x34C JUMPI DUP3 SWAP1 SUB PUSH1 0x1F AND DUP3 ADD SWAP2 JUMPDEST POP POP POP POP POP DUP2 MSTORE PUSH1 0x20 ADD PUSH1 0x5 DUP3 ADD DUP1 SLOAD PUSH2 0x382 SWAP1 PUSH2 0x1F0C JUMP JUMPDEST DUP1 PUSH1 0x1F ADD PUSH1 0x20 DUP1 SWAP2 DIV MUL PUSH1 0x20 ADD PUSH1 0x40 MLOAD SWAP1 DUP2 ADD PUSH1 0x40 MSTORE DUP1 SWAP3 SWAP2 SWAP1 DUP2 DUP2 MSTORE PUSH1 0x20 ADD DUP3 DUP1 SLOAD PUSH2 0x3AE SWAP1 PUSH2 0x1F0C JUMP JUMPDEST DUP1 ISZERO PUSH2 0x3FB JUMPI DUP1 PUSH1 0x1F LT PUSH2 0x3D0 JUMPI PUSH2 0x100 DUP1 DUP4 SLOAD DIV MUL DUP4 MSTORE SWAP2 PUSH1 0x20 ADD SWAP2 PUSH2 0x3FB JUMP JUMPDEST DUP3 ADD SWAP2 SWAP1 PUSH1 0x0 MSTORE PUSH1 0x20 PUSH1 0x0 KECCAK256 SWAP1 JUMPDEST DUP2 SLOAD DUP2 MSTORE SWAP1 PUSH1 0x1 ADD SWAP1 PUSH1 0x20 ADD DUP1 DUP4 GT PUSH2 0x3DE JUMPI DUP3 SWAP1 SUB PUSH1 0x1F AND DUP3 ADD SWAP2 JUMPDEST POP POP POP POP POP DUP2 MSTORE PUSH1 0x20 ADD PUSH1 0x6 DUP3 ADD DUP1 SLOAD PUSH2 0x414 SWAP1 PUSH2 0x1F0C JUMP JUMPDEST DUP1 PUSH1 0x1F ADD PUSH1 0x20 DUP1 SWAP2 DIV MUL PUSH1 0x20 ADD PUSH1 0x40 MLOAD SWAP1 DUP2 ADD PUSH1 0x40 MSTORE DUP1 SWAP3 SWAP2 SWAP1 DUP2 DUP2 MSTORE PUSH1 0x20 ADD DUP3 DUP1 SLOAD PUSH2 0x440 SWAP1 PUSH2 0x1F0C JUMP JUMPDEST DUP1 ISZERO PUSH2 0x48D JUMPI DUP1 PUSH1 0x1F LT PUSH2 0x462 JUMPI PUSH2 0x100 DUP1 DUP4 SLOAD DIV MUL DUP4 MSTORE SWAP2 PUSH1 0x20 ADD SWAP2 PUSH2 0x48D JUMP JUMPDEST DUP3 ADD SWAP2 SWAP1 PUSH1 0x0 MSTORE PUSH1 0x20 PUSH1 0x0 KECCAK256 SWAP1 JUMPDEST DUP2 SLOAD DUP2 MSTORE SWAP1 PUSH1 0x1 ADD SWAP1 PUSH1 0x20 ADD DUP1 DUP4 GT PUSH2 0x470 JUMPI DUP3 SWAP1 SUB PUSH1 0x1F AND DUP3 ADD SWAP2 JUMPDEST POP POP POP POP POP DUP2 MSTORE PUSH1 0x20 ADD PUSH1 0x7 DUP3 ADD DUP1 SLOAD PUSH2 0x4A6 SWAP1 PUSH2 0x1F0C JUMP JUMPDEST DUP1 PUSH1 0x1F ADD PUSH1 0x20 DUP1 SWAP2 DIV MUL PUSH1 0x20 ADD PUSH1 0x40 MLOAD SWAP1 DUP2 ADD PUSH1 0x40 MSTORE DUP1 SWAP3 SWAP2 SWAP1 DUP2 DUP2 MSTORE PUSH1 0x20 ADD DUP3 DUP1 SLOAD PUSH2 0x4D2 SWAP1 PUSH2 0x1F0C JUMP JUMPDEST DUP1 ISZERO PUSH2 0x51F JUMPI DUP1 PUSH1 0x1F LT PUSH2 0x4F4 JUMPI PUSH2 0x100 DUP1 DUP4 SLOAD DIV MUL DUP4 MSTORE SWAP2 PUSH1 0x20 ADD SWAP2 PUSH2 0x51F JUMP JUMPDEST DUP3 ADD SWAP2 SWAP1 PUSH1 0x0 MSTORE PUSH1 0x20 PUSH1 0x0 KECCAK256 SWAP1 JUMPDEST DUP2 SLOAD DUP2 MSTORE SWAP1 PUSH1 0x1 ADD SWAP1 PUSH1 0x20 ADD DUP1 DUP4 GT PUSH2 0x502 JUMPI DUP3 SWAP1 SUB PUSH1 0x1F AND DUP3 ADD SWAP2 JUMPDEST POP POP POP POP POP DUP2 MSTORE PUSH1 0x20 ADD PUSH1 0x8 DUP3 ADD DUP1 SLOAD PUSH2 0x538 SWAP1 PUSH2 0x1F0C JUMP JUMPDEST DUP1 PUSH1 0x1F ADD PUSH1 0x20 DUP1 SWAP2 DIV MUL PUSH1 0x20 ADD PUSH1 0x40 MLOAD SWAP1 DUP2 ADD PUSH1 0x40 MSTORE DUP1 SWAP3 SWAP2 SWAP1 DUP2 DUP2 MSTORE PUSH1 0x20 ADD DUP3 DUP1 SLOAD PUSH2 0x564 SWAP1 PUSH2 0x1F0C JUMP JUMPDEST DUP1 ISZERO PUSH2 0x5B1 JUMPI DUP1 PUSH1 0x1F LT PUSH2 0x586 JUMPI PUSH2 0x100 DUP1 DUP4 SLOAD DIV MUL DUP4 MSTORE SWAP2 PUSH1 0x20 ADD SWAP2 PUSH2 0x5B1 JUMP JUMPDEST DUP3 ADD SWAP2 SWAP1 PUSH1 0x0 MSTORE PUSH1 0x20 PUSH1 0x0 KECCAK256 SWAP1 JUMPDEST DUP2 SLOAD DUP2 MSTORE SWAP1 PUSH1 0x1 ADD SWAP1 PUSH1 0x20 ADD DUP1 DUP4 GT PUSH2 0x594 JUMPI DUP3 SWAP1 SUB PUSH1 0x1F AND DUP3 ADD SWAP2 JUMPDEST POP POP POP POP POP DUP2 MSTORE PUSH1 0x20 ADD PUSH1 0x9 DUP3 ADD DUP1 SLOAD PUSH2 0x5CA SWAP1 PUSH2 0x1F0C JUMP JUMPDEST DUP1 PUSH1 0x1F ADD PUSH1 0x20 DUP1 SWAP2 DIV MUL PUSH1 0x20 ADD PUSH1 0x40 MLOAD SWAP1 DUP2 ADD PUSH1 0x40 MSTORE DUP1 SWAP3 SWAP2 SWAP1 DUP2 DUP2 MSTORE PUSH1 0x20 ADD DUP3 DUP1 SLOAD PUSH2 0x5F6 SWAP1 PUSH2 0x1F0C JUMP JUMPDEST DUP1 ISZERO PUSH2 0x643 JUMPI DUP1 PUSH1 0x1F LT PUSH2 0x618 JUMPI PUSH2 0x100 DUP1 DUP4 SLOAD DIV MUL DUP4 MSTORE SWAP2 PUSH1 0x20 ADD SWAP2 PUSH2 0x643 JUMP JUMPDEST DUP3 ADD SWAP2 SWAP1 PUSH1 0x0 MSTORE PUSH1 0x20 PUSH1 0x0 KECCAK256 SWAP1 JUMPDEST DUP2 SLOAD DUP2 MSTORE SWAP1 PUSH1 0x1 ADD SWAP1 PUSH1 0x20 ADD DUP1 DUP4 GT PUSH2 0x626 JUMPI DUP3 SWAP1 SUB PUSH1 0x1F AND DUP3 ADD SWAP2 JUMPDEST POP POP POP POP POP DUP2 MSTORE PUSH1 0x20 ADD PUSH1 0xA DUP3 ADD PUSH1 0x0 SWAP1 SLOAD SWAP1 PUSH2 0x100 EXP SWAP1 DIV PUSH20 0xFFFFFFFFFFFFFFFFFFFFFFFFFFFFFFFFFFFFFFFF AND PUSH20 0xFFFFFFFFFFFFFFFFFFFFFFFFFFFFFFFFFFFFFFFF AND PUSH20 0xFFFFFFFFFFFFFFFFFFFFFFFFFFFFFFFFFFFFFFFF AND DUP2 MSTORE POP POP DUP2 MSTORE PUSH1 0x20 ADD SWAP1 PUSH1 0x1 ADD SWAP1 PUSH2 0x184 JUMP JUMPDEST POP POP POP POP SWAP1 POP SWAP1 JUMP JUMPDEST PUSH1 0x60 PUSH1 0x0 DUP1 DUP4 DUP2 MSTORE PUSH1 0x20 ADD SWAP1 DUP2 MSTORE PUSH1 0x20 ADD PUSH1 0x0 KECCAK256 DUP1 SLOAD PUSH2 0x6D9 SWAP1 PUSH2 0x1F0C JUMP JUMPDEST DUP1 PUSH1 0x1F ADD PUSH1 0x20 DUP1 SWAP2 DIV MUL PUSH1 0x20 ADD PUSH1 0x40 MLOAD SWAP1 DUP2 ADD PUSH1 0x40 MSTORE DUP1 SWAP3 SWAP2 SWAP1 DUP2 DUP2 MSTORE PUSH1 0x20 ADD DUP3 DUP1 SLOAD PUSH2 0x705 SWAP1 PUSH2 0x1F0C JUMP JUMPDEST DUP1 ISZERO PUSH2 0x752 JUMPI DUP1 PUSH1 0x1F LT PUSH2 0x727 JUMPI PUSH2 0x100 DUP1 DUP4 SLOAD DIV MUL DUP4 MSTORE SWAP2 PUSH1 0x20 ADD SWAP2 PUSH2 0x752 JUMP JUMPDEST DUP3 ADD SWAP2 SWAP1 PUSH1 0x0 MSTORE PUSH1 0x20 PUSH1 0x0 KECCAK256 SWAP1 JUMPDEST DUP2 SLOAD DUP2 MSTORE SWAP1 PUSH1 0x1 ADD SWAP1 PUSH1 0x20 ADD DUP1 DUP4 GT PUSH2 0x735 JUMPI DUP3 SWAP1 SUB PUSH1 0x1F AND DUP3 ADD SWAP2 JUMPDEST POP POP POP POP POP SWAP1 POP SWAP2 SWAP1 POP JUMP JUMPDEST PUSH2 0x766 PUSH2 0x15AD JUMP JUMPDEST DUP2 DUP1 MLOAD SWAP1 PUSH1 0x20 ADD KECCAK256 PUSH1 0x0 DUP1 DUP6 DUP2 MSTORE PUSH1 0x20 ADD SWAP1 DUP2 MSTORE PUSH1 0x20 ADD PUSH1 0x0 KECCAK256 PUSH1 0x40 MLOAD PUSH2 0x78D SWAP2 SWAP1 PUSH2 0x1FE0 JUMP JUMPDEST PUSH1 0x40 MLOAD DUP1 SWAP2 SUB SWAP1 KECCAK256 SUB PUSH2 0xD1B JUMPI PUSH1 0x0 JUMPDEST PUSH1 0x1 DUP1 SLOAD SWAP1 POP DUP2 LT ISZERO PUSH2 0xD19 JUMPI DUP4 PUSH1 0x1 DUP3 DUP2 SLOAD DUP2 LT PUSH2 0x7BF JUMPI PUSH2 0x7BE PUSH2 0x1FF7 JUMP JUMPDEST JUMPDEST SWAP1 PUSH1 0x0 MSTORE PUSH1 0x20 PUSH1 0x0 KECCAK256 SWAP1 PUSH1 0xB MUL ADD PUSH1 0x2 ADD SLOAD SUB PUSH2 0xD06 JUMPI PUSH1 0x1 DUP2 DUP2 SLOAD DUP2 LT PUSH2 0x7EA JUMPI PUSH2 0x7E9 PUSH2 0x1FF7 JUMP JUMPDEST JUMPDEST SWAP1 PUSH1 0x0 MSTORE PUSH1 0x20 PUSH1 0x0 KECCAK256 SWAP1 PUSH1 0xB MUL ADD PUSH1 0x40 MLOAD DUP1 PUSH2 0x160 ADD PUSH1 0x40 MSTORE SWAP1 DUP2 PUSH1 0x0 DUP3 ADD DUP1 SLOAD PUSH2 0x814 SWAP1 PUSH2 0x1F0C JUMP JUMPDEST DUP1 PUSH1 0x1F ADD PUSH1 0x20 DUP1 SWAP2 DIV MUL PUSH1 0x20 ADD PUSH1 0x40 MLOAD SWAP1 DUP2 ADD PUSH1 0x40 MSTORE DUP1 SWAP3 SWAP2 SWAP1 DUP2 DUP2 MSTORE PUSH1 0x20 ADD DUP3 DUP1 SLOAD PUSH2 0x840 SWAP1 PUSH2 0x1F0C JUMP JUMPDEST DUP1 ISZERO PUSH2 0x88D JUMPI DUP1 PUSH1 0x1F LT PUSH2 0x862 JUMPI PUSH2 0x100 DUP1 DUP4 SLOAD DIV MUL DUP4 MSTORE SWAP2 PUSH1 0x20 ADD SWAP2 PUSH2 0x88D JUMP JUMPDEST DUP3 ADD SWAP2 SWAP1 PUSH1 0x0 MSTORE PUSH1 0x20 PUSH1 0x0 KECCAK256 SWAP1 JUMPDEST DUP2 SLOAD DUP2 MSTORE SWAP1 PUSH1 0x1 ADD SWAP1 PUSH1 0x20 ADD DUP1 DUP4 GT PUSH2 0x870 JUMPI DUP3 SWAP1 SUB PUSH1 0x1F AND DUP3 ADD SWAP2 JUMPDEST POP POP POP POP POP DUP2 MSTORE PUSH1 0x20 ADD PUSH1 0x1 DUP3 ADD DUP1 SLOAD PUSH2 0x8A6 SWAP1 PUSH2 0x1F0C JUMP JUMPDEST DUP1 PUSH1 0x1F ADD PUSH1 0x20 DUP1 SWAP2 DIV MUL PUSH1 0x20 ADD PUSH1 0x40 MLOAD SWAP1 DUP2 ADD PUSH1 0x40 MSTORE DUP1 SWAP3 SWAP2 SWAP1 DUP2 DUP2 MSTORE PUSH1 0x20 ADD DUP3 DUP1 SLOAD PUSH2 0x8D2 SWAP1 PUSH2 0x1F0C JUMP JUMPDEST DUP1 ISZERO PUSH2 0x91F JUMPI DUP1 PUSH1 0x1F LT PUSH2 0x8F4 JUMPI PUSH2 0x100 DUP1 DUP4 SLOAD DIV MUL DUP4 MSTORE SWAP2 PUSH1 0x20 ADD SWAP2 PUSH2 0x91F JUMP JUMPDEST DUP3 ADD SWAP2 SWAP1 PUSH1 0x0 MSTORE PUSH1 0x20 PUSH1 0x0 KECCAK256 SWAP1 JUMPDEST DUP2 SLOAD DUP2 MSTORE SWAP1 PUSH1 0x1 ADD SWAP1 PUSH1 0x20 ADD DUP1 DUP4 GT PUSH2 0x902 JUMPI DUP3 SWAP1 SUB PUSH1 0x1F AND DUP3 ADD SWAP2 JUMPDEST POP POP POP POP POP DUP2 MSTORE PUSH1 0x20 ADD PUSH1 0x2 DUP3 ADD SLOAD DUP2 MSTORE PUSH1 0x20 ADD PUSH1 0x3 DUP3 ADD SLOAD DUP2 MSTORE PUSH1 0x20 ADD PUSH1 0x4 DUP3 ADD DUP1 SLOAD PUSH2 0x94C SWAP1 PUSH2 0x1F0C JUMP JUMPDEST DUP1 PUSH1 0x1F ADD PUSH1 0x20 DUP1 SWAP2 DIV MUL PUSH1 0x20 ADD PUSH1 0x40 MLOAD SWAP1 DUP2 ADD PUSH1 0x40 MSTORE DUP1 SWAP3 SWAP2 SWAP1 DUP2 DUP2 MSTORE PUSH1 0x20 ADD DUP3 DUP1 SLOAD PUSH2 0x978 SWAP1 PUSH2 0x1F0C JUMP JUMPDEST DUP1 ISZERO PUSH2 0x9C5 JUMPI DUP1 PUSH1 0x1F LT PUSH2 0x99A JUMPI PUSH2 0x100 DUP1 DUP4 SLOAD DIV MUL DUP4 MSTORE SWAP2 PUSH1 0x20 ADD SWAP2 PUSH2 0x9C5 JUMP JUMPDEST DUP3 ADD SWAP2 SWAP1 PUSH1 0x0 MSTORE PUSH1 0x20 PUSH1 0x0 KECCAK256 SWAP1 JUMPDEST DUP2 SLOAD DUP2 MSTORE SWAP1 PUSH1 0x1 ADD SWAP1 PUSH1 0x20 ADD DUP1 DUP4 GT PUSH2 0x9A8 JUMPI DUP3 SWAP1 SUB PUSH1 0x1F AND DUP3 ADD SWAP2 JUMPDEST POP POP POP POP POP DUP2 MSTORE PUSH1 0x20 ADD PUSH1 0x5 DUP3 ADD DUP1 SLOAD PUSH2 0x9DE SWAP1 PUSH2 0x1F0C JUMP JUMPDEST DUP1 PUSH1 0x1F ADD PUSH1 0x20 DUP1 SWAP2 DIV MUL PUSH1 0x20 ADD PUSH1 0x40 MLOAD SWAP1 DUP2 ADD PUSH1 0x40 MSTORE DUP1 SWAP3 SWAP2 SWAP1 DUP2 DUP2 MSTORE PUSH1 0x20 ADD DUP3 DUP1 SLOAD PUSH2 0xA0A SWAP1 PUSH2 0x1F0C JUMP JUMPDEST DUP1 ISZERO PUSH2 0xA57 JUMPI DUP1 PUSH1 0x1F LT PUSH2 0xA2C JUMPI PUSH2 0x100 DUP1 DUP4 SLOAD DIV MUL DUP4 MSTORE SWAP2 PUSH1 0x20 ADD SWAP2 PUSH2 0xA57 JUMP JUMPDEST DUP3 ADD SWAP2 SWAP1 PUSH1 0x0 MSTORE PUSH1 0x20 PUSH1 0x0 KECCAK256 SWAP1 JUMPDEST DUP2 SLOAD DUP2 MSTORE SWAP1 PUSH1 0x1 ADD SWAP1 PUSH1 0x20 ADD DUP1 DUP4 GT PUSH2 0xA3A JUMPI DUP3 SWAP1 SUB PUSH1 0x1F AND DUP3 ADD SWAP2 JUMPDEST POP POP POP POP POP DUP2 MSTORE PUSH1 0x20 ADD PUSH1 0x6 DUP3 ADD DUP1 SLOAD PUSH2 0xA70 SWAP1 PUSH2 0x1F0C JUMP JUMPDEST DUP1 PUSH1 0x1F ADD PUSH1 0x20 DUP1 SWAP2 DIV MUL PUSH1 0x20 ADD PUSH1 0x40 MLOAD SWAP1 DUP2 ADD PUSH1 0x40 MSTORE DUP1 SWAP3 SWAP2 SWAP1 DUP2 DUP2 MSTORE PUSH1 0x20 ADD DUP3 DUP1 SLOAD PUSH2 0xA9C SWAP1 PUSH2 0x1F0C JUMP JUMPDEST DUP1 ISZERO PUSH2 0xAE9 JUMPI DUP1 PUSH1 0x1F LT PUSH2 0xABE JUMPI PUSH2 0x100 DUP1 DUP4 SLOAD DIV MUL DUP4 MSTORE SWAP2 PUSH1 0x20 ADD SWAP2 PUSH2 0xAE9 JUMP JUMPDEST DUP3 ADD SWAP2 SWAP1 PUSH1 0x0 MSTORE PUSH1 0x20 PUSH1 0x0 KECCAK256 SWAP1 JUMPDEST DUP2 SLOAD DUP2 MSTORE SWAP1 PUSH1 0x1 ADD SWAP1 PUSH1 0x20 ADD DUP1 DUP4 GT PUSH2 0xACC JUMPI DUP3 SWAP1 SUB PUSH1 0x1F AND DUP3 ADD SWAP2 JUMPDEST POP POP POP POP POP DUP2 MSTORE PUSH1 0x20 ADD PUSH1 0x7 DUP3 ADD DUP1 SLOAD PUSH2 0xB02 SWAP1 PUSH2 0x1F0C JUMP JUMPDEST DUP1 PUSH1 0x1F ADD PUSH1 0x20 DUP1 SWAP2 DIV MUL PUSH1 0x20 ADD PUSH1 0x40 MLOAD SWAP1 DUP2 ADD PUSH1 0x40 MSTORE DUP1 SWAP3 SWAP2 SWAP1 DUP2 DUP2 MSTORE PUSH1 0x20 ADD DUP3 DUP1 SLOAD PUSH2 0xB2E SWAP1 PUSH2 0x1F0C JUMP JUMPDEST DUP1 ISZERO PUSH2 0xB7B JUMPI DUP1 PUSH1 0x1F LT PUSH2 0xB50 JUMPI PUSH2 0x100 DUP1 DUP4 SLOAD DIV MUL DUP4 MSTORE SWAP2 PUSH1 0x20 ADD SWAP2 PUSH2 0xB7B JUMP JUMPDEST DUP3 ADD SWAP2 SWAP1 PUSH1 0x0 MSTORE PUSH1 0x20 PUSH1 0x0 KECCAK256 SWAP1 JUMPDEST DUP2 SLOAD DUP2 MSTORE SWAP1 PUSH1 0x1 ADD SWAP1 PUSH1 0x20 ADD DUP1 DUP4 GT PUSH2 0xB5E JUMPI DUP3 SWAP1 SUB PUSH1 0x1F AND DUP3 ADD SWAP2 JUMPDEST POP POP POP POP POP DUP2 MSTORE PUSH1 0x20 ADD PUSH1 0x8 DUP3 ADD DUP1 SLOAD PUSH2 0xB94 SWAP1 PUSH2 0x1F0C JUMP JUMPDEST DUP1 PUSH1 0x1F ADD PUSH1 0x20 DUP1 SWAP2 DIV MUL PUSH1 0x20 ADD PUSH1 0x40 MLOAD SWAP1 DUP2 ADD PUSH1 0x40 MSTORE DUP1 SWAP3 SWAP2 SWAP1 DUP2 DUP2 MSTORE PUSH1 0x20 ADD DUP3 DUP1 SLOAD PUSH2 0xBC0 SWAP1 PUSH2 0x1F0C JUMP JUMPDEST DUP1 ISZERO PUSH2 0xC0D JUMPI DUP1 PUSH1 0x1F LT PUSH2 0xBE2 JUMPI PUSH2 0x100 DUP1 DUP4 SLOAD DIV MUL DUP4 MSTORE SWAP2 PUSH1 0x20 ADD SWAP2 PUSH2 0xC0D JUMP JUMPDEST DUP3 ADD SWAP2 SWAP1 PUSH1 0x0 MSTORE PUSH1 0x20 PUSH1 0x0 KECCAK256 SWAP1 JUMPDEST DUP2 SLOAD DUP2 MSTORE SWAP1 PUSH1 0x1 ADD SWAP1 PUSH1 0x20 ADD DUP1 DUP4 GT PUSH2 0xBF0 JUMPI DUP3 SWAP1 SUB PUSH1 0x1F AND DUP3 ADD SWAP2 JUMPDEST POP POP POP POP POP DUP2 MSTORE PUSH1 0x20 ADD PUSH1 0x9 DUP3 ADD DUP1 SLOAD PUSH2 0xC26 SWAP1 PUSH2 0x1F0C JUMP JUMPDEST DUP1 PUSH1 0x1F ADD PUSH1 0x20 DUP1 SWAP2 DIV MUL PUSH1 0x20 ADD PUSH1 0x40 MLOAD SWAP1 DUP2 ADD PUSH1 0x40 MSTORE DUP1 SWAP3 SWAP2 SWAP1 DUP2 DUP2 MSTORE PUSH1 0x20 ADD DUP3 DUP1 SLOAD PUSH2 0xC52 SWAP1 PUSH2 0x1F0C JUMP JUMPDEST DUP1 ISZERO PUSH2 0xC9F JUMPI DUP1 PUSH1 0x1F LT PUSH2 0xC74 JUMPI PUSH2 0x100 DUP1 DUP4 SLOAD DIV MUL DUP4 MSTORE SWAP2 PUSH1 0x20 ADD SWAP2 PUSH2 0xC9F JUMP JUMPDEST DUP3 ADD SWAP2 SWAP1 PUSH1 0x0 MSTORE PUSH1 0x20 PUSH1 0x0 KECCAK256 SWAP1 JUMPDEST DUP2 SLOAD DUP2 MSTORE SWAP1 PUSH1 0x1 ADD SWAP1 PUSH1 0x20 ADD DUP1 DUP4 GT PUSH2 0xC82 JUMPI DUP3 SWAP1 SUB PUSH1 0x1F AND DUP3 ADD SWAP2 JUMPDEST POP POP POP POP POP DUP2 MSTORE PUSH1 0x20 ADD PUSH1 0xA DUP3 ADD PUSH1 0x0 SWAP1 SLOAD SWAP1 PUSH2 0x100 EXP SWAP1 DIV PUSH20 0xFFFFFFFFFFFFFFFFFFFFFFFFFFFFFFFFFFFFFFFF AND PUSH20 0xFFFFFFFFFFFFFFFFFFFFFFFFFFFFFFFFFFFFFFFF AND PUSH20 0xFFFFFFFFFFFFFFFFFFFFFFFFFFFFFFFFFFFFFFFF AND DUP2 MSTORE POP POP SWAP2 POP POP PUSH2 0xD56 JUMP JUMPDEST DUP1 DUP1 PUSH2 0xD11 SWAP1 PUSH2 0x2055 JUMP JUMPDEST SWAP2 POP POP PUSH2 0x79D JUMP JUMPDEST POP JUMPDEST PUSH1 0x40 MLOAD PUSH32 0x8C379A000000000000000000000000000000000000000000000000000000000 DUP2 MSTORE PUSH1 0x4 ADD PUSH2 0xD4D SWAP1 PUSH2 0x210F JUMP JUMPDEST PUSH1 0x40 MLOAD DUP1 SWAP2 SUB SWAP1 REVERT JUMPDEST SWAP3 SWAP2 POP POP JUMP JUMPDEST PUSH2 0xD65 DUP10 PUSH2 0xF7C JUMP JUMPDEST ISZERO PUSH2 0xDAC JUMPI PUSH1 0x0 PUSH2 0xDAB JUMPI PUSH1 0x40 MLOAD PUSH32 0x8C379A000000000000000000000000000000000000000000000000000000000 DUP2 MSTORE PUSH1 0x4 ADD PUSH2 0xDA2 SWAP1 PUSH2 0x217B JUMP JUMPDEST PUSH1 0x40 MLOAD DUP1 SWAP2 SUB SWAP1 REVERT JUMPDEST JUMPDEST PUSH1 0x0 PUSH1 0x40 MLOAD DUP1 PUSH2 0x160 ADD PUSH1 0x40 MSTORE DUP1 DUP14 DUP2 MSTORE PUSH1 0x20 ADD DUP13 DUP2 MSTORE PUSH1 0x20 ADD DUP12 DUP2 MSTORE PUSH1 0x20 ADD DUP11 DUP2 MSTORE PUSH1 0x20 ADD DUP9 DUP2 MSTORE PUSH1 0x20 ADD DUP8 DUP2 MSTORE PUSH1 0x20 ADD DUP7 DUP2 MSTORE PUSH1 0x20 ADD DUP6 DUP2 MSTORE PUSH1 0x20 ADD DUP5 DUP2 MSTORE PUSH1 0x20 ADD DUP4 DUP2 MSTORE PUSH1 0x20 ADD CALLER PUSH20 0xFFFFFFFFFFFFFFFFFFFFFFFFFFFFFFFFFFFFFFFF AND DUP2 MSTORE POP SWAP1 POP PUSH1 0x1 DUP2 SWAP1 DUP1 PUSH1 0x1 DUP2 SLOAD ADD DUP1 DUP3 SSTORE DUP1 SWAP2 POP POP PUSH1 0x1 SWAP1 SUB SWAP1 PUSH1 0x0 MSTORE PUSH1 0x20 PUSH1 0x0 KECCAK256 SWAP1 PUSH1 0xB MUL ADD PUSH1 0x0 SWAP1 SWAP2 SWAP1 SWAP2 SWAP1 SWAP2 POP PUSH1 0x0 DUP3 ADD MLOAD DUP2 PUSH1 0x0 ADD SWAP1 DUP2 PUSH2 0xE53 SWAP2 SWAP1 PUSH2 0x2347 JUMP JUMPDEST POP PUSH1 0x20 DUP3 ADD MLOAD DUP2 PUSH1 0x1 ADD SWAP1 DUP2 PUSH2 0xE69 SWAP2 SWAP1 PUSH2 0x2347 JUMP JUMPDEST POP PUSH1 0x40 DUP3 ADD MLOAD DUP2 PUSH1 0x2 ADD SSTORE PUSH1 0x60 DUP3 ADD MLOAD DUP2 PUSH1 0x3 ADD SSTORE PUSH1 0x80 DUP3 ADD MLOAD DUP2 PUSH1 0x4 ADD SWAP1 DUP2 PUSH2 0xE93 SWAP2 SWAP1 PUSH2 0x2347 JUMP JUMPDEST POP PUSH1 0xA0 DUP3 ADD MLOAD DUP2 PUSH1 0x5 ADD SWAP1 DUP2 PUSH2 0xEA9 SWAP2 SWAP1 PUSH2 0x2347 JUMP JUMPDEST POP PUSH1 0xC0 DUP3 ADD MLOAD DUP2 PUSH1 0x6 ADD SWAP1 DUP2 PUSH2 0xEBF SWAP2 SWAP1 PUSH2 0x2347 JUMP JUMPDEST POP PUSH1 0xE0 DUP3 ADD MLOAD DUP2 PUSH1 0x7 ADD SWAP1 DUP2 PUSH2 0xED5 SWAP2 SWAP1 PUSH2 0x2347 JUMP JUMPDEST POP PUSH2 0x100 DUP3 ADD MLOAD DUP2 PUSH1 0x8 ADD SWAP1 DUP2 PUSH2 0xEEC SWAP2 SWAP1 PUSH2 0x2347 JUMP JUMPDEST POP PUSH2 0x120 DUP3 ADD MLOAD DUP2 PUSH1 0x9 ADD SWAP1 DUP2 PUSH2 0xF03 SWAP2 SWAP1 PUSH2 0x2347 JUMP JUMPDEST POP PUSH2 0x140 DUP3 ADD MLOAD DUP2 PUSH1 0xA ADD PUSH1 0x0 PUSH2 0x100 EXP DUP2 SLOAD DUP2 PUSH20 0xFFFFFFFFFFFFFFFFFFFFFFFFFFFFFFFFFFFFFFFF MUL NOT AND SWAP1 DUP4 PUSH20 0xFFFFFFFFFFFFFFFFFFFFFFFFFFFFFFFFFFFFFFFF AND MUL OR SWAP1 SSTORE POP POP POP DUP8 PUSH1 0x0 DUP1 DUP13 DUP2 MSTORE PUSH1 0x20 ADD SWAP1 DUP2 MSTORE PUSH1 0x20 ADD PUSH1 0x0 KECCAK256 SWAP1 DUP2 PUSH2 0xF6D SWAP2 SWAP1 PUSH2 0x2347 JUMP JUMPDEST POP POP POP POP POP POP POP POP POP POP POP POP POP JUMP JUMPDEST PUSH1 0x0 DUP1 PUSH1 0x0 SWAP1 POP JUMPDEST PUSH1 0x1 DUP1 SLOAD SWAP1 POP DUP2 LT ISZERO PUSH2 0xFDA JUMPI DUP3 PUSH1 0x1 DUP3 DUP2 SLOAD DUP2 LT PUSH2 0xFA6 JUMPI PUSH2 0xFA5 PUSH2 0x1FF7 JUMP JUMPDEST JUMPDEST SWAP1 PUSH1 0x0 MSTORE PUSH1 0x20 PUSH1 0x0 KECCAK256 SWAP1 PUSH1 0xB MUL ADD PUSH1 0x2 ADD SLOAD SUB PUSH2 0xFC7 JUMPI PUSH1 0x1 SWAP2 POP POP PUSH2 0xFE0 JUMP JUMPDEST DUP1 DUP1 PUSH2 0xFD2 SWAP1 PUSH2 0x2055 JUMP JUMPDEST SWAP2 POP POP PUSH2 0xF84 JUMP JUMPDEST POP PUSH1 0x0 SWAP1 POP JUMPDEST SWAP2 SWAP1 POP JUMP JUMPDEST PUSH2 0xFED PUSH2 0x15AD JUMP JUMPDEST PUSH1 0x0 JUMPDEST PUSH1 0x1 DUP1 SLOAD SWAP1 POP DUP2 LT ISZERO PUSH2 0x156C JUMPI DUP3 PUSH1 0x1 DUP3 DUP2 SLOAD DUP2 LT PUSH2 0x1012 JUMPI PUSH2 0x1011 PUSH2 0x1FF7 JUMP JUMPDEST JUMPDEST SWAP1 PUSH1 0x0 MSTORE PUSH1 0x20 PUSH1 0x0 KECCAK256 SWAP1 PUSH1 0xB MUL ADD PUSH1 0x2 ADD SLOAD SUB PUSH2 0x1559 JUMPI PUSH1 0x1 DUP2 DUP2 SLOAD DUP2 LT PUSH2 0x103D JUMPI PUSH2 0x103C PUSH2 0x1FF7 JUMP JUMPDEST JUMPDEST SWAP1 PUSH1 0x0 MSTORE PUSH1 0x20 PUSH1 0x0 KECCAK256 SWAP1 PUSH1 0xB MUL ADD PUSH1 0x40 MLOAD DUP1 PUSH2 0x160 ADD PUSH1 0x40 MSTORE SWAP1 DUP2 PUSH1 0x0 DUP3 ADD DUP1 SLOAD PUSH2 0x1067 SWAP1 PUSH2 0x1F0C JUMP JUMPDEST DUP1 PUSH1 0x1F ADD PUSH1 0x20 DUP1 SWAP2 DIV MUL PUSH1 0x20 ADD PUSH1 0x40 MLOAD SWAP1 DUP2 ADD PUSH1 0x40 MSTORE DUP1 SWAP3 SWAP2 SWAP1 DUP2 DUP2 MSTORE PUSH1 0x20 ADD DUP3 DUP1 SLOAD PUSH2 0x1093 SWAP1 PUSH2 0x1F0C JUMP JUMPDEST DUP1 ISZERO PUSH2 0x10E0 JUMPI DUP1 PUSH1 0x1F LT PUSH2 0x10B5 JUMPI PUSH2 0x100 DUP1 DUP4 SLOAD DIV MUL DUP4 MSTORE SWAP2 PUSH1 0x20 ADD SWAP2 PUSH2 0x10E0 JUMP JUMPDEST DUP3 ADD SWAP2 SWAP1 PUSH1 0x0 MSTORE PUSH1 0x20 PUSH1 0x0 KECCAK256 SWAP1 JUMPDEST DUP2 SLOAD DUP2 MSTORE SWAP1 PUSH1 0x1 ADD SWAP1 PUSH1 0x20 ADD DUP1 DUP4 GT PUSH2 0x10C3 JUMPI DUP3 SWAP1 SUB PUSH1 0x1F AND DUP3 ADD SWAP2 JUMPDEST POP POP POP POP POP DUP2 MSTORE PUSH1 0x20 ADD PUSH1 0x1 DUP3 ADD DUP1 SLOAD PUSH2 0x10F9 SWAP1 PUSH2 0x1F0C JUMP JUMPDEST DUP1 PUSH1 0x1F ADD PUSH1 0x20 DUP1 SWAP2 DIV MUL PUSH1 0x20 ADD PUSH1 0x40 MLOAD SWAP1 DUP2 ADD PUSH1 0x40 MSTORE DUP1 SWAP3 SWAP2 SWAP1 DUP2 DUP2 MSTORE PUSH1 0x20 ADD DUP3 DUP1 SLOAD PUSH2 0x1125 SWAP1 PUSH2 0x1F0C JUMP JUMPDEST DUP1 ISZERO PUSH2 0x1172 JUMPI DUP1 PUSH1 0x1F LT PUSH2 0x1147 JUMPI PUSH2 0x100 DUP1 DUP4 SLOAD DIV MUL DUP4 MSTORE SWAP2 PUSH1 0x20 ADD SWAP2 PUSH2 0x1172 JUMP JUMPDEST DUP3 ADD SWAP2 SWAP1 PUSH1 0x0 MSTORE PUSH1 0x20 PUSH1 0x0 KECCAK256 SWAP1 JUMPDEST DUP2 SLOAD DUP2 MSTORE SWAP1 PUSH1 0x1 ADD SWAP1 PUSH1 0x20 ADD DUP1 DUP4 GT PUSH2 0x1155 JUMPI DUP3 SWAP1 SUB PUSH1 0x1F AND DUP3 ADD SWAP2 JUMPDEST POP POP POP POP POP DUP2 MSTORE PUSH1 0x20 ADD PUSH1 0x2 DUP3 ADD SLOAD DUP2 MSTORE PUSH1 0x20 ADD PUSH1 0x3 DUP3 ADD SLOAD DUP2 MSTORE PUSH1 0x20 ADD PUSH1 0x4 DUP3 ADD DUP1 SLOAD PUSH2 0x119F SWAP1 PUSH2 0x1F0C JUMP JUMPDEST DUP1 PUSH1 0x1F ADD PUSH1 0x20 DUP1 SWAP2 DIV MUL PUSH1 0x20 ADD PUSH1 0x40 MLOAD SWAP1 DUP2 ADD PUSH1 0x40 MSTORE DUP1 SWAP3 SWAP2 SWAP1 DUP2 DUP2 MSTORE PUSH1 0x20 ADD DUP3 DUP1 SLOAD PUSH2 0x11CB SWAP1 PUSH2 0x1F0C JUMP JUMPDEST DUP1 ISZERO PUSH2 0x1218 JUMPI DUP1 PUSH1 0x1F LT PUSH2 0x11ED JUMPI PUSH2 0x100 DUP1 DUP4 SLOAD DIV MUL DUP4 MSTORE SWAP2 PUSH1 0x20 ADD SWAP2 PUSH2 0x1218 JUMP JUMPDEST DUP3 ADD SWAP2 SWAP1 PUSH1 0x0 MSTORE PUSH1 0x20 PUSH1 0x0 KECCAK256 SWAP1 JUMPDEST DUP2 SLOAD DUP2 MSTORE SWAP1 PUSH1 0x1 ADD SWAP1 PUSH1 0x20 ADD DUP1 DUP4 GT PUSH2 0x11FB JUMPI DUP3 SWAP1 SUB PUSH1 0x1F AND DUP3 ADD SWAP2 JUMPDEST POP POP POP POP POP DUP2 MSTORE PUSH1 0x20 ADD PUSH1 0x5 DUP3 ADD DUP1 SLOAD PUSH2 0x1231 SWAP1 PUSH2 0x1F0C JUMP JUMPDEST DUP1 PUSH1 0x1F ADD PUSH1 0x20 DUP1 SWAP2 DIV MUL PUSH1 0x20 ADD PUSH1 0x40 MLOAD SWAP1 DUP2 ADD PUSH1 0x40 MSTORE DUP1 SWAP3 SWAP2 SWAP1 DUP2 DUP2 MSTORE PUSH1 0x20 ADD DUP3 DUP1 SLOAD PUSH2 0x125D SWAP1 PUSH2 0x1F0C JUMP JUMPDEST DUP1 ISZERO PUSH2 0x12AA JUMPI DUP1 PUSH1 0x1F LT PUSH2 0x127F JUMPI PUSH2 0x100 DUP1 DUP4 SLOAD DIV MUL DUP4 MSTORE SWAP2 PUSH1 0x20 ADD SWAP2 PUSH2 0x12AA JUMP JUMPDEST DUP3 ADD SWAP2 SWAP1 PUSH1 0x0 MSTORE PUSH1 0x20 PUSH1 0x0 KECCAK256 SWAP1 JUMPDEST DUP2 SLOAD DUP2 MSTORE SWAP1 PUSH1 0x1 ADD SWAP1 PUSH1 0x20 ADD DUP1 DUP4 GT PUSH2 0x128D JUMPI DUP3 SWAP1 SUB PUSH1 0x1F AND DUP3 ADD SWAP2 JUMPDEST POP POP POP POP POP DUP2 MSTORE PUSH1 0x20 ADD PUSH1 0x6 DUP3 ADD DUP1 SLOAD PUSH2 0x12C3 SWAP1 PUSH2 0x1F0C JUMP JUMPDEST DUP1 PUSH1 0x1F ADD PUSH1 0x20 DUP1 SWAP2 DIV MUL PUSH1 0x20 ADD PUSH1 0x40 MLOAD SWAP1 DUP2 ADD PUSH1 0x40 MSTORE DUP1 SWAP3 SWAP2 SWAP1 DUP2 DUP2 MSTORE PUSH1 0x20 ADD DUP3 DUP1 SLOAD PUSH2 0x12EF SWAP1 PUSH2 0x1F0C JUMP JUMPDEST DUP1 ISZERO PUSH2 0x133C JUMPI DUP1 PUSH1 0x1F LT PUSH2 0x1311 JUMPI PUSH2 0x100 DUP1 DUP4 SLOAD DIV MUL DUP4 MSTORE SWAP2 PUSH1 0x20 ADD SWAP2 PUSH2 0x133C JUMP JUMPDEST DUP3 ADD SWAP2 SWAP1 PUSH1 0x0 MSTORE PUSH1 0x20 PUSH1 0x0 KECCAK256 SWAP1 JUMPDEST DUP2 SLOAD DUP2 MSTORE SWAP1 PUSH1 0x1 ADD SWAP1 PUSH1 0x20 ADD DUP1 DUP4 GT PUSH2 0x131F JUMPI DUP3 SWAP1 SUB PUSH1 0x1F AND DUP3 ADD SWAP2 JUMPDEST POP POP POP POP POP DUP2 MSTORE PUSH1 0x20 ADD PUSH1 0x7 DUP3 ADD DUP1 SLOAD PUSH2 0x1355 SWAP1 PUSH2 0x1F0C JUMP JUMPDEST DUP1 PUSH1 0x1F ADD PUSH1 0x20 DUP1 SWAP2 DIV MUL PUSH1 0x20 ADD PUSH1 0x40 MLOAD SWAP1 DUP2 ADD PUSH1 0x40 MSTORE DUP1 SWAP3 SWAP2 SWAP1 DUP2 DUP2 MSTORE PUSH1 0x20 ADD DUP3 DUP1 SLOAD PUSH2 0x1381 SWAP1 PUSH2 0x1F0C JUMP JUMPDEST DUP1 ISZERO PUSH2 0x13CE JUMPI DUP1 PUSH1 0x1F LT PUSH2 0x13A3 JUMPI PUSH2 0x100 DUP1 DUP4 SLOAD DIV MUL DUP4 MSTORE SWAP2 PUSH1 0x20 ADD SWAP2 PUSH2 0x13CE JUMP JUMPDEST DUP3 ADD SWAP2 SWAP1 PUSH1 0x0 MSTORE PUSH1 0x20 PUSH1 0x0 KECCAK256 SWAP1 JUMPDEST DUP2 SLOAD DUP2 MSTORE SWAP1 PUSH1 0x1 ADD SWAP1 PUSH1 0x20 ADD DUP1 DUP4 GT PUSH2 0x13B1 JUMPI DUP3 SWAP1 SUB PUSH1 0x1F AND DUP3 ADD SWAP2 JUMPDEST POP POP POP POP POP DUP2 MSTORE PUSH1 0x20 ADD PUSH1 0x8 DUP3 ADD DUP1 SLOAD PUSH2 0x13E7 SWAP1 PUSH2 0x1F0C JUMP JUMPDEST DUP1 PUSH1 0x1F ADD PUSH1 0x20 DUP1 SWAP2 DIV MUL PUSH1 0x20 ADD PUSH1 0x40 MLOAD SWAP1 DUP2 ADD PUSH1 0x40 MSTORE DUP1 SWAP3 SWAP2 SWAP1 DUP2 DUP2 MSTORE PUSH1 0x20 ADD DUP3 DUP1 SLOAD PUSH2 0x1413 SWAP1 PUSH2 0x1F0C JUMP JUMPDEST DUP1 ISZERO PUSH2 0x1460 JUMPI DUP1 PUSH1 0x1F LT PUSH2 0x1435 JUMPI PUSH2 0x100 DUP1 DUP4 SLOAD DIV MUL DUP4 MSTORE SWAP2 PUSH1 0x20 ADD SWAP2 PUSH2 0x1460 JUMP JUMPDEST DUP3 ADD SWAP2 SWAP1 PUSH1 0x0 MSTORE PUSH1 0x20 PUSH1 0x0 KECCAK256 SWAP1 JUMPDEST DUP2 SLOAD DUP2 MSTORE SWAP1 PUSH1 0x1 ADD SWAP1 PUSH1 0x20 ADD DUP1 DUP4 GT PUSH2 0x1443 JUMPI DUP3 SWAP1 SUB PUSH1 0x1F AND DUP3 ADD SWAP2 JUMPDEST POP POP POP POP POP DUP2 MSTORE PUSH1 0x20 ADD PUSH1 0x9 DUP3 ADD DUP1 SLOAD PUSH2 0x1479 SWAP1 PUSH2 0x1F0C JUMP JUMPDEST DUP1 PUSH1 0x1F ADD PUSH1 0x20 DUP1 SWAP2 DIV MUL PUSH1 0x20 ADD PUSH1 0x40 MLOAD SWAP1 DUP2 ADD PUSH1 0x40 MSTORE DUP1 SWAP3 SWAP2 SWAP1 DUP2 DUP2 MSTORE PUSH1 0x20 ADD DUP3 DUP1 SLOAD PUSH2 0x14A5 SWAP1 PUSH2 0x1F0C JUMP JUMPDEST DUP1 ISZERO PUSH2 0x14F2 JUMPI DUP1 PUSH1 0x1F LT PUSH2 0x14C7 JUMPI PUSH2 0x100 DUP1 DUP4 SLOAD DIV MUL DUP4 MSTORE SWAP2 PUSH1 0x20 ADD SWAP2 PUSH2 0x14F2 JUMP JUMPDEST DUP3 ADD SWAP2 SWAP1 PUSH1 0x0 MSTORE PUSH1 0x20 PUSH1 0x0 KECCAK256 SWAP1 JUMPDEST DUP2 SLOAD DUP2 MSTORE SWAP1 PUSH1 0x1 ADD SWAP1 PUSH1 0x20 ADD DUP1 DUP4 GT PUSH2 0x14D5 JUMPI DUP3 SWAP1 SUB PUSH1 0x1F AND DUP3 ADD SWAP2 JUMPDEST POP POP POP POP POP DUP2 MSTORE PUSH1 0x20 ADD PUSH1 0xA DUP3 ADD PUSH1 0x0 SWAP1 SLOAD SWAP1 PUSH2 0x100 EXP SWAP1 DIV PUSH20 0xFFFFFFFFFFFFFFFFFFFFFFFFFFFFFFFFFFFFFFFF AND PUSH20 0xFFFFFFFFFFFFFFFFFFFFFFFFFFFFFFFFFFFFFFFF AND PUSH20 0xFFFFFFFFFFFFFFFFFFFFFFFFFFFFFFFFFFFFFFFF AND DUP2 MSTORE POP POP SWAP2 POP POP PUSH2 0x15A8 JUMP JUMPDEST DUP1 DUP1 PUSH2 0x1564 SWAP1 PUSH2 0x2055 JUMP JUMPDEST SWAP2 POP POP PUSH2 0xFF0 JUMP JUMPDEST POP PUSH1 0x40 MLOAD PUSH32 0x8C379A000000000000000000000000000000000000000000000000000000000 DUP2 MSTORE PUSH1 0x4 ADD PUSH2 0x159F SWAP1 PUSH2 0x2465 JUMP JUMPDEST PUSH1 0x40 MLOAD DUP1 SWAP2 SUB SWAP1 REVERT JUMPDEST SWAP2 SWAP1 POP JUMP JUMPDEST PUSH1 0x40 MLOAD DUP1 PUSH2 0x160 ADD PUSH1 0x40 MSTORE DUP1 PUSH1 0x60 DUP2 MSTORE PUSH1 0x20 ADD PUSH1 0x60 DUP2 MSTORE PUSH1 0x20 ADD PUSH1 0x0 DUP2 MSTORE PUSH1 0x20 ADD PUSH1 0x0 DUP2 MSTORE PUSH1 0x20 ADD PUSH1 0x60 DUP2 MSTORE PUSH1 0x20 ADD PUSH1 0x60 DUP2 MSTORE PUSH1 0x20 ADD PUSH1 0x60 DUP2 MSTORE PUSH1 0x20 ADD PUSH1 0x60 DUP2 MSTORE PUSH1 0x20 ADD PUSH1 0x60 DUP2 MSTORE PUSH1 0x20 ADD PUSH1 0x60 DUP2 MSTORE PUSH1 0x20 ADD PUSH1 0x0 PUSH20 0xFFFFFFFFFFFFFFFFFFFFFFFFFFFFFFFFFFFFFFFF AND DUP2 MSTORE POP SWAP1 JUMP JUMPDEST PUSH1 0x0 DUP2 MLOAD SWAP1 POP SWAP2 SWAP1 POP JUMP JUMPDEST PUSH1 0x0 DUP3 DUP3 MSTORE PUSH1 0x20 DUP3 ADD SWAP1 POP SWAP3 SWAP2 POP POP JUMP JUMPDEST PUSH1 0x0 DUP2 SWAP1 POP PUSH1 0x20 DUP3 ADD SWAP1 POP SWAP2 SWAP1 POP JUMP JUMPDEST PUSH1 0x0 DUP2 MLOAD SWAP1 POP SWAP2 SWAP1 POP JUMP JUMPDEST PUSH1 0x0 DUP3 DUP3 MSTORE PUSH1 0x20 DUP3 ADD SWAP1 POP SWAP3 SWAP2 POP POP JUMP JUMPDEST PUSH1 0x0 JUMPDEST DUP4 DUP2 LT ISZERO PUSH2 0x1683 JUMPI DUP1 DUP3 ADD MLOAD DUP2 DUP5 ADD MSTORE PUSH1 0x20 DUP2 ADD SWAP1 POP PUSH2 0x1668 JUMP JUMPDEST PUSH1 0x0 DUP5 DUP5 ADD MSTORE POP POP POP POP JUMP JUMPDEST PUSH1 0x0 PUSH1 0x1F NOT PUSH1 0x1F DUP4 ADD AND SWAP1 POP SWAP2 SWAP1 POP JUMP JUMPDEST PUSH1 0x0 PUSH2 0x16AB DUP3 PUSH2 0x1649 JUMP JUMPDEST PUSH2 0x16B5 DUP2 DUP6 PUSH2 0x1654 JUMP JUMPDEST SWAP4 POP PUSH2 0x16C5 DUP2 DUP6 PUSH1 0x20 DUP7 ADD PUSH2 0x1665 JUMP JUMPDEST PUSH2 0x16CE DUP2 PUSH2 0x168F JUMP JUMPDEST DUP5 ADD SWAP2 POP POP SWAP3 SWAP2 POP POP JUMP JUMPDEST PUSH1 0x0 DUP2 SWAP1 POP SWAP2 SWAP1 POP JUMP JUMPDEST PUSH2 0x16EC DUP2 PUSH2 0x16D9 JUMP JUMPDEST DUP3 MSTORE POP POP JUMP JUMPDEST PUSH1 0x0 PUSH20 0xFFFFFFFFFFFFFFFFFFFFFFFFFFFFFFFFFFFFFFFF DUP3 AND SWAP1 POP SWAP2 SWAP1 POP JUMP JUMPDEST PUSH1 0x0 PUSH2 0x171D DUP3 PUSH2 0x16F2 JUMP JUMPDEST SWAP1 POP SWAP2 SWAP1 POP JUMP JUMPDEST PUSH2 0x172D DUP2 PUSH2 0x1712 JUMP JUMPDEST DUP3 MSTORE POP POP JUMP JUMPDEST PUSH1 0x0 PUSH2 0x160 DUP4 ADD PUSH1 0x0 DUP4 ADD MLOAD DUP5 DUP3 SUB PUSH1 0x0 DUP7 ADD MSTORE PUSH2 0x1751 DUP3 DUP3 PUSH2 0x16A0 JUMP JUMPDEST SWAP2 POP POP PUSH1 0x20 DUP4 ADD MLOAD DUP5 DUP3 SUB PUSH1 0x20 DUP7 ADD MSTORE PUSH2 0x176B DUP3 DUP3 PUSH2 0x16A0 JUMP JUMPDEST SWAP2 POP POP PUSH1 0x40 DUP4 ADD MLOAD PUSH2 0x1780 PUSH1 0x40 DUP7 ADD DUP3 PUSH2 0x16E3 JUMP JUMPDEST POP PUSH1 0x60 DUP4 ADD MLOAD PUSH2 0x1793 PUSH1 0x60 DUP7 ADD DUP3 PUSH2 0x16E3 JUMP JUMPDEST POP PUSH1 0x80 DUP4 ADD MLOAD DUP5 DUP3 SUB PUSH1 0x80 DUP7 ADD MSTORE PUSH2 0x17AB DUP3 DUP3 PUSH2 0x16A0 JUMP JUMPDEST SWAP2 POP POP PUSH1 0xA0 DUP4 ADD MLOAD DUP5 DUP3 SUB PUSH1 0xA0 DUP7 ADD MSTORE PUSH2 0x17C5 DUP3 DUP3 PUSH2 0x16A0 JUMP JUMPDEST SWAP2 POP POP PUSH1 0xC0 DUP4 ADD MLOAD DUP5 DUP3 SUB PUSH1 0xC0 DUP7 ADD MSTORE PUSH2 0x17DF DUP3 DUP3 PUSH2 0x16A0 JUMP JUMPDEST SWAP2 POP POP PUSH1 0xE0 DUP4 ADD MLOAD DUP5 DUP3 SUB PUSH1 0xE0 DUP7 ADD MSTORE PUSH2 0x17F9 DUP3 DUP3 PUSH2 0x16A0 JUMP JUMPDEST SWAP2 POP POP PUSH2 0x100 DUP4 ADD MLOAD DUP5 DUP3 SUB PUSH2 0x100 DUP7 ADD MSTORE PUSH2 0x1815 DUP3 DUP3 PUSH2 0x16A0 JUMP JUMPDEST SWAP2 POP POP PUSH2 0x120 DUP4 ADD MLOAD DUP5 DUP3 SUB PUSH2 0x120 DUP7 ADD MSTORE PUSH2 0x1831 DUP3 DUP3 PUSH2 0x16A0 JUMP JUMPDEST SWAP2 POP POP PUSH2 0x140 DUP4 ADD MLOAD PUSH2 0x1848 PUSH2 0x140 DUP7 ADD DUP3 PUSH2 0x1724 JUMP JUMPDEST POP DUP1 SWAP2 POP POP SWAP3 SWAP2 POP POP JUMP JUMPDEST PUSH1 0x0 PUSH2 0x185F DUP4 DUP4 PUSH2 0x1733 JUMP JUMPDEST SWAP1 POP SWAP3 SWAP2 POP POP JUMP JUMPDEST PUSH1 0x0 PUSH1 0x20 DUP3 ADD SWAP1 POP SWAP2 SWAP1 POP JUMP JUMPDEST PUSH1 0x0 PUSH2 0x187F DUP3 PUSH2 0x161D JUMP JUMPDEST PUSH2 0x1889 DUP2 DUP6 PUSH2 0x1628 JUMP JUMPDEST SWAP4 POP DUP4 PUSH1 0x20 DUP3 MUL DUP6 ADD PUSH2 0x189B DUP6 PUSH2 0x1639 JUMP JUMPDEST DUP1 PUSH1 0x0 JUMPDEST DUP6 DUP2 LT ISZERO PUSH2 0x18D7 JUMPI DUP5 DUP5 SUB DUP10 MSTORE DUP2 MLOAD PUSH2 0x18B8 DUP6 DUP3 PUSH2 0x1853 JUMP JUMPDEST SWAP5 POP PUSH2 0x18C3 DUP4 PUSH2 0x1867 JUMP JUMPDEST SWAP3 POP PUSH1 0x20 DUP11 ADD SWAP10 POP POP PUSH1 0x1 DUP2 ADD SWAP1 POP PUSH2 0x189F JUMP JUMPDEST POP DUP3 SWAP8 POP DUP8 SWAP6 POP POP POP POP POP POP SWAP3 SWAP2 POP POP JUMP JUMPDEST PUSH1 0x0 PUSH1 0x20 DUP3 ADD SWAP1 POP DUP2 DUP2 SUB PUSH1 0x0 DUP4 ADD MSTORE PUSH2 0x1903 DUP2 DUP5 PUSH2 0x1874 JUMP JUMPDEST SWAP1 POP SWAP3 SWAP2 POP POP JUMP JUMPDEST PUSH1 0x0 PUSH1 0x40 MLOAD SWAP1 POP SWAP1 JUMP JUMPDEST PUSH1 0x0 DUP1 REVERT JUMPDEST PUSH1 0x0 DUP1 REVERT JUMPDEST PUSH2 0x1928 DUP2 PUSH2 0x16D9 JUMP JUMPDEST DUP2 EQ PUSH2 0x1933 JUMPI PUSH1 0x0 DUP1 REVERT JUMPDEST POP JUMP JUMPDEST PUSH1 0x0 DUP2 CALLDATALOAD SWAP1 POP PUSH2 0x1945 DUP2 PUSH2 0x191F JUMP JUMPDEST SWAP3 SWAP2 POP POP JUMP JUMPDEST PUSH1 0x0 PUSH1 0x20 DUP3 DUP5 SUB SLT ISZERO PUSH2 0x1961 JUMPI PUSH2 0x1960 PUSH2 0x1915 JUMP JUMPDEST JUMPDEST PUSH1 0x0 PUSH2 0x196F DUP5 DUP3 DUP6 ADD PUSH2 0x1936 JUMP JUMPDEST SWAP2 POP POP SWAP3 SWAP2 POP POP JUMP JUMPDEST PUSH1 0x0 DUP3 DUP3 MSTORE PUSH1 0x20 DUP3 ADD SWAP1 POP SWAP3 SWAP2 POP POP JUMP JUMPDEST PUSH1 0x0 PUSH2 0x1994 DUP3 PUSH2 0x1649 JUMP JUMPDEST PUSH2 0x199E DUP2 DUP6 PUSH2 0x1978 JUMP JUMPDEST SWAP4 POP PUSH2 0x19AE DUP2 DUP6 PUSH1 0x20 DUP7 ADD PUSH2 0x1665 JUMP JUMPDEST PUSH2 0x19B7 DUP2 PUSH2 0x168F JUMP JUMPDEST DUP5 ADD SWAP2 POP POP SWAP3 SWAP2 POP POP JUMP JUMPDEST PUSH1 0x0 PUSH1 0x20 DUP3 ADD SWAP1 POP DUP2 DUP2 SUB PUSH1 0x0 DUP4 ADD MSTORE PUSH2 0x19DC DUP2 DUP5 PUSH2 0x1989 JUMP JUMPDEST SWAP1 POP SWAP3 SWAP2 POP POP JUMP JUMPDEST PUSH1 0x0 DUP1 REVERT JUMPDEST PUSH1 0x0 DUP1 REVERT JUMPDEST PUSH32 0x4E487B7100000000000000000000000000000000000000000000000000000000 PUSH1 0x0 MSTORE PUSH1 0x41 PUSH1 0x4 MSTORE PUSH1 0x24 PUSH1 0x0 REVERT JUMPDEST PUSH2 0x1A26 DUP3 PUSH2 0x168F JUMP JUMPDEST DUP2 ADD DUP2 DUP2 LT PUSH8 0xFFFFFFFFFFFFFFFF DUP3 GT OR ISZERO PUSH2 0x1A45 JUMPI PUSH2 0x1A44 PUSH2 0x19EE JUMP JUMPDEST JUMPDEST DUP1 PUSH1 0x40 MSTORE POP POP POP JUMP JUMPDEST PUSH1 0x0 PUSH2 0x1A58 PUSH2 0x190B JUMP JUMPDEST SWAP1 POP PUSH2 0x1A64 DUP3 DUP3 PUSH2 0x1A1D JUMP JUMPDEST SWAP2 SWAP1 POP JUMP JUMPDEST PUSH1 0x0 PUSH8 0xFFFFFFFFFFFFFFFF DUP3 GT ISZERO PUSH2 0x1A84 JUMPI PUSH2 0x1A83 PUSH2 0x19EE JUMP JUMPDEST JUMPDEST PUSH2 0x1A8D DUP3 PUSH2 0x168F JUMP JUMPDEST SWAP1 POP PUSH1 0x20 DUP2 ADD SWAP1 POP SWAP2 SWAP1 POP JUMP JUMPDEST DUP3 DUP2 DUP4 CALLDATACOPY PUSH1 0x0 DUP4 DUP4 ADD MSTORE POP POP POP JUMP JUMPDEST PUSH1 0x0 PUSH2 0x1ABC PUSH2 0x1AB7 DUP5 PUSH2 0x1A69 JUMP JUMPDEST PUSH2 0x1A4E JUMP JUMPDEST SWAP1 POP DUP3 DUP2 MSTORE PUSH1 0x20 DUP2 ADD DUP5 DUP5 DUP5 ADD GT ISZERO PUSH2 0x1AD8 JUMPI PUSH2 0x1AD7 PUSH2 0x19E9 JUMP JUMPDEST JUMPDEST PUSH2 0x1AE3 DUP5 DUP3 DUP6 PUSH2 0x1A9A JUMP JUMPDEST POP SWAP4 SWAP3 POP POP POP JUMP JUMPDEST PUSH1 0x0 DUP3 PUSH1 0x1F DUP4 ADD SLT PUSH2 0x1B00 JUMPI PUSH2 0x1AFF PUSH2 0x19E4 JUMP JUMPDEST JUMPDEST DUP2 CALLDATALOAD PUSH2 0x1B10 DUP5 DUP3 PUSH1 0x20 DUP7 ADD PUSH2 0x1AA9 JUMP JUMPDEST SWAP2 POP POP SWAP3 SWAP2 POP POP JUMP JUMPDEST PUSH1 0x0 DUP1 PUSH1 0x40 DUP4 DUP6 SUB SLT ISZERO PUSH2 0x1B30 JUMPI PUSH2 0x1B2F PUSH2 0x1915 JUMP JUMPDEST JUMPDEST PUSH1 0x0 PUSH2 0x1B3E DUP6 DUP3 DUP7 ADD PUSH2 0x1936 JUMP JUMPDEST SWAP3 POP POP PUSH1 0x20 DUP4 ADD CALLDATALOAD PUSH8 0xFFFFFFFFFFFFFFFF DUP2 GT ISZERO PUSH2 0x1B5F JUMPI PUSH2 0x1B5E PUSH2 0x191A JUMP JUMPDEST JUMPDEST PUSH2 0x1B6B DUP6 DUP3 DUP7 ADD PUSH2 0x1AEB JUMP JUMPDEST SWAP2 POP POP SWAP3 POP SWAP3 SWAP1 POP JUMP JUMPDEST PUSH1 0x0 PUSH2 0x160 DUP4 ADD PUSH1 0x0 DUP4 ADD MLOAD DUP5 DUP3 SUB PUSH1 0x0 DUP7 ADD MSTORE PUSH2 0x1B93 DUP3 DUP3 PUSH2 0x16A0 JUMP JUMPDEST SWAP2 POP POP PUSH1 0x20 DUP4 ADD MLOAD DUP5 DUP3 SUB PUSH1 0x20 DUP7 ADD MSTORE PUSH2 0x1BAD DUP3 DUP3 PUSH2 0x16A0 JUMP JUMPDEST SWAP2 POP POP PUSH1 0x40 DUP4 ADD MLOAD PUSH2 0x1BC2 PUSH1 0x40 DUP7 ADD DUP3 PUSH2 0x16E3 JUMP JUMPDEST POP PUSH1 0x60 DUP4 ADD MLOAD PUSH2 0x1BD5 PUSH1 0x60 DUP7 ADD DUP3 PUSH2 0x16E3 JUMP JUMPDEST POP PUSH1 0x80 DUP4 ADD MLOAD DUP5 DUP3 SUB PUSH1 0x80 DUP7 ADD MSTORE PUSH2 0x1BED DUP3 DUP3 PUSH2 0x16A0 JUMP JUMPDEST SWAP2 POP POP PUSH1 0xA0 DUP4 ADD MLOAD DUP5 DUP3 SUB PUSH1 0xA0 DUP7 ADD MSTORE PUSH2 0x1C07 DUP3 DUP3 PUSH2 0x16A0 JUMP JUMPDEST SWAP2 POP POP PUSH1 0xC0 DUP4 ADD MLOAD DUP5 DUP3 SUB PUSH1 0xC0 DUP7 ADD MSTORE PUSH2 0x1C21 DUP3 DUP3 PUSH2 0x16A0 JUMP JUMPDEST SWAP2 POP POP PUSH1 0xE0 DUP4 ADD MLOAD DUP5 DUP3 SUB PUSH1 0xE0 DUP7 ADD MSTORE PUSH2 0x1C3B DUP3 DUP3 PUSH2 0x16A0 JUMP JUMPDEST SWAP2 POP POP PUSH2 0x100 DUP4 ADD MLOAD DUP5 DUP3 SUB PUSH2 0x100 DUP7 ADD MSTORE PUSH2 0x1C57 DUP3 DUP3 PUSH2 0x16A0 JUMP JUMPDEST SWAP2 POP POP PUSH2 0x120 DUP4 ADD MLOAD DUP5 DUP3 SUB PUSH2 0x120 DUP7 ADD MSTORE PUSH2 0x1C73 DUP3 DUP3 PUSH2 0x16A0 JUMP JUMPDEST SWAP2 POP POP PUSH2 0x140 DUP4 ADD MLOAD PUSH2 0x1C8A PUSH2 0x140 DUP7 ADD DUP3 PUSH2 0x1724 JUMP JUMPDEST POP DUP1 SWAP2 POP POP SWAP3 SWAP2 POP POP JUMP JUMPDEST PUSH1 0x0 PUSH1 0x20 DUP3 ADD SWAP1 POP DUP2 DUP2 SUB PUSH1 0x0 DUP4 ADD MSTORE PUSH2 0x1CAF DUP2 DUP5 PUSH2 0x1B75 JUMP JUMPDEST SWAP1 POP SWAP3 SWAP2 POP POP JUMP JUMPDEST PUSH1 0x0 DUP1 PUSH1 0x0 DUP1 PUSH1 0x0 DUP1 PUSH1 0x0 DUP1 PUSH1 0x0 DUP1 PUSH1 0x0 PUSH2 0x160 DUP13 DUP15 SUB SLT ISZERO PUSH2 0x1CDD JUMPI PUSH2 0x1CDC PUSH2 0x1915 JUMP JUMPDEST JUMPDEST PUSH1 0x0 DUP13 ADD CALLDATALOAD PUSH8 0xFFFFFFFFFFFFFFFF DUP2 GT ISZERO PUSH2 0x1CFB JUMPI PUSH2 0x1CFA PUSH2 0x191A JUMP JUMPDEST JUMPDEST PUSH2 0x1D07 DUP15 DUP3 DUP16 ADD PUSH2 0x1AEB JUMP JUMPDEST SWAP12 POP POP PUSH1 0x20 DUP13 ADD CALLDATALOAD PUSH8 0xFFFFFFFFFFFFFFFF DUP2 GT ISZERO PUSH2 0x1D28 JUMPI PUSH2 0x1D27 PUSH2 0x191A JUMP JUMPDEST JUMPDEST PUSH2 0x1D34 DUP15 DUP3 DUP16 ADD PUSH2 0x1AEB JUMP JUMPDEST SWAP11 POP POP PUSH1 0x40 PUSH2 0x1D45 DUP15 DUP3 DUP16 ADD PUSH2 0x1936 JUMP JUMPDEST SWAP10 POP POP PUSH1 0x60 PUSH2 0x1D56 DUP15 DUP3 DUP16 ADD PUSH2 0x1936 JUMP JUMPDEST SWAP9 POP POP PUSH1 0x80 DUP13 ADD CALLDATALOAD PUSH8 0xFFFFFFFFFFFFFFFF DUP2 GT ISZERO PUSH2 0x1D77 JUMPI PUSH2 0x1D76 PUSH2 0x191A JUMP JUMPDEST JUMPDEST PUSH2 0x1D83 DUP15 DUP3 DUP16 ADD PUSH2 0x1AEB JUMP JUMPDEST SWAP8 POP POP PUSH1 0xA0 DUP13 ADD CALLDATALOAD PUSH8 0xFFFFFFFFFFFFFFFF DUP2 GT ISZERO PUSH2 0x1DA4 JUMPI PUSH2 0x1DA3 PUSH2 0x191A JUMP JUMPDEST JUMPDEST PUSH2 0x1DB0 DUP15 DUP3 DUP16 ADD PUSH2 0x1AEB JUMP JUMPDEST SWAP7 POP POP PUSH1 0xC0 DUP13 ADD CALLDATALOAD PUSH8 0xFFFFFFFFFFFFFFFF DUP2 GT ISZERO PUSH2 0x1DD1 JUMPI PUSH2 0x1DD0 PUSH2 0x191A JUMP JUMPDEST JUMPDEST PUSH2 0x1DDD DUP15 DUP3 DUP16 ADD PUSH2 0x1AEB JUMP JUMPDEST SWAP6 POP POP PUSH1 0xE0 DUP13 ADD CALLDATALOAD PUSH8 0xFFFFFFFFFFFFFFFF DUP2 GT ISZERO PUSH2 0x1DFE JUMPI PUSH2 0x1DFD PUSH2 0x191A JUMP JUMPDEST JUMPDEST PUSH2 0x1E0A DUP15 DUP3 DUP16 ADD PUSH2 0x1AEB JUMP JUMPDEST SWAP5 POP POP PUSH2 0x100 DUP13 ADD CALLDATALOAD PUSH8 0xFFFFFFFFFFFFFFFF DUP2 GT ISZERO PUSH2 0x1E2C JUMPI PUSH2 0x1E2B PUSH2 0x191A JUMP JUMPDEST JUMPDEST PUSH2 0x1E38 DUP15 DUP3 DUP16 ADD PUSH2 0x1AEB JUMP JUMPDEST SWAP4 POP POP PUSH2 0x120 DUP13 ADD CALLDATALOAD PUSH8 0xFFFFFFFFFFFFFFFF DUP2 GT ISZERO PUSH2 0x1E5A JUMPI PUSH2 0x1E59 PUSH2 0x191A JUMP JUMPDEST JUMPDEST PUSH2 0x1E66 DUP15 DUP3 DUP16 ADD PUSH2 0x1AEB JUMP JUMPDEST SWAP3 POP POP PUSH2 0x140 DUP13 ADD CALLDATALOAD PUSH8 0xFFFFFFFFFFFFFFFF DUP2 GT ISZERO PUSH2 0x1E88 JUMPI PUSH2 0x1E87 PUSH2 0x191A JUMP JUMPDEST JUMPDEST PUSH2 0x1E94 DUP15 DUP3 DUP16 ADD PUSH2 0x1AEB JUMP JUMPDEST SWAP2 POP POP SWAP3 SWAP6 SWAP9 SWAP12 POP SWAP3 SWAP6 SWAP9 SWAP12 SWAP1 SWAP4 SWAP7 SWAP10 POP JUMP JUMPDEST PUSH1 0x0 DUP2 ISZERO ISZERO SWAP1 POP SWAP2 SWAP1 POP JUMP JUMPDEST PUSH2 0x1EBC DUP2 PUSH2 0x1EA7 JUMP JUMPDEST DUP3 MSTORE POP POP JUMP JUMPDEST PUSH1 0x0 PUSH1 0x20 DUP3 ADD SWAP1 POP PUSH2 0x1ED7 PUSH1 0x0 DUP4 ADD DUP5 PUSH2 0x1EB3 JUMP JUMPDEST SWAP3 SWAP2 POP POP JUMP JUMPDEST PUSH32 0x4E487B7100000000000000000000000000000000000000000000000000000000 PUSH1 0x0 MSTORE PUSH1 0x22 PUSH1 0x4 MSTORE PUSH1 0x24 PUSH1 0x0 REVERT JUMPDEST PUSH1 0x0 PUSH1 0x2 DUP3 DIV SWAP1 POP PUSH1 0x1 DUP3 AND DUP1 PUSH2 0x1F24 JUMPI PUSH1 0x7F DUP3 AND SWAP2 POP JUMPDEST PUSH1 0x20 DUP3 LT DUP2 SUB PUSH2 0x1F37 JUMPI PUSH2 0x1F36 PUSH2 0x1EDD JUMP JUMPDEST JUMPDEST POP SWAP2 SWAP1 POP JUMP JUMPDEST PUSH1 0x0 DUP2 SWAP1 POP SWAP3 SWAP2 POP POP JUMP JUMPDEST PUSH1 0x0 DUP2 SWAP1 POP DUP2 PUSH1 0x0 MSTORE PUSH1 0x20 PUSH1 0x0 KECCAK256 SWAP1 POP SWAP2 SWAP1 POP JUMP JUMPDEST PUSH1 0x0 DUP2 SLOAD PUSH2 0x1F6A DUP2 PUSH2 0x1F0C JUMP JUMPDEST PUSH2 0x1F74 DUP2 DUP7 PUSH2 0x1F3D JUMP JUMPDEST SWAP5 POP PUSH1 0x1 DUP3 AND PUSH1 0x0 DUP2 EQ PUSH2 0x1F8F JUMPI PUSH1 0x1 DUP2 EQ PUSH2 0x1FA4 JUMPI PUSH2 0x1FD7 JUMP JUMPDEST PUSH1 0xFF NOT DUP4 AND DUP7 MSTORE DUP2 ISZERO ISZERO DUP3 MUL DUP7 ADD SWAP4 POP PUSH2 0x1FD7 JUMP JUMPDEST PUSH2 0x1FAD DUP6 PUSH2 0x1F48 JUMP JUMPDEST PUSH1 0x0 JUMPDEST DUP4 DUP2 LT ISZERO PUSH2 0x1FCF JUMPI DUP2 SLOAD DUP2 DUP10 ADD MSTORE PUSH1 0x1 DUP3 ADD SWAP2 POP PUSH1 0x20 DUP2 ADD SWAP1 POP PUSH2 0x1FB0 JUMP JUMPDEST DUP4 DUP9 ADD SWAP6 POP POP POP JUMPDEST POP POP POP SWAP3 SWAP2 POP POP JUMP JUMPDEST PUSH1 0x0 PUSH2 0x1FEC DUP3 DUP5 PUSH2 0x1F5D JUMP JUMPDEST SWAP2 POP DUP2 SWAP1 POP SWAP3 SWAP2 POP POP JUMP JUMPDEST PUSH32 0x4E487B7100000000000000000000000000000000000000000000000000000000 PUSH1 0x0 MSTORE PUSH1 0x32 PUSH1 0x4 MSTORE PUSH1 0x24 PUSH1 0x0 REVERT JUMPDEST PUSH32 0x4E487B7100000000000000000000000000000000000000000000000000000000 PUSH1 0x0 MSTORE PUSH1 0x11 PUSH1 0x4 MSTORE PUSH1 0x24 PUSH1 0x0 REVERT JUMPDEST PUSH1 0x0 PUSH2 0x2060 DUP3 PUSH2 0x16D9 JUMP JUMPDEST SWAP2 POP PUSH32 0xFFFFFFFFFFFFFFFFFFFFFFFFFFFFFFFFFFFFFFFFFFFFFFFFFFFFFFFFFFFFFFFF DUP3 SUB PUSH2 0x2092 JUMPI PUSH2 0x2091 PUSH2 0x2026 JUMP JUMPDEST JUMPDEST PUSH1 0x1 DUP3 ADD SWAP1 POP SWAP2 SWAP1 POP JUMP JUMPDEST PUSH32 0x55736572206E6F7420666F756E64206F722070617373776F726420697320696E PUSH1 0x0 DUP3 ADD MSTORE PUSH32 0x636F727265637400000000000000000000000000000000000000000000000000 PUSH1 0x20 DUP3 ADD MSTORE POP JUMP JUMPDEST PUSH1 0x0 PUSH2 0x20F9 PUSH1 0x27 DUP4 PUSH2 0x1978 JUMP JUMPDEST SWAP2 POP PUSH2 0x2104 DUP3 PUSH2 0x209D JUMP JUMPDEST PUSH1 0x40 DUP3 ADD SWAP1 POP SWAP2 SWAP1 POP JUMP JUMPDEST PUSH1 0x0 PUSH1 0x20 DUP3 ADD SWAP1 POP DUP2 DUP2 SUB PUSH1 0x0 DUP4 ADD MSTORE PUSH2 0x2128 DUP2 PUSH2 0x20EC JUMP JUMPDEST SWAP1 POP SWAP2 SWAP1 POP JUMP JUMPDEST PUSH32 0x4E6F7420616C6C6F776564000000000000000000000000000000000000000000 PUSH1 0x0 DUP3 ADD MSTORE POP JUMP JUMPDEST PUSH1 0x0 PUSH2 0x2165 PUSH1 0xB DUP4 PUSH2 0x1978 JUMP JUMPDEST SWAP2 POP PUSH2 0x2170 DUP3 PUSH2 0x212F JUMP JUMPDEST PUSH1 0x20 DUP3 ADD SWAP1 POP SWAP2 SWAP1 POP JUMP JUMPDEST PUSH1 0x0 PUSH1 0x20 DUP3 ADD SWAP1 POP DUP2 DUP2 SUB PUSH1 0x0 DUP4 ADD MSTORE PUSH2 0x2194 DUP2 PUSH2 0x2158 JUMP JUMPDEST SWAP1 POP SWAP2 SWAP1 POP JUMP JUMPDEST PUSH1 0x0 DUP2 SWAP1 POP DUP2 PUSH1 0x0 MSTORE PUSH1 0x20 PUSH1 0x0 KECCAK256 SWAP1 POP SWAP2 SWAP1 POP JUMP JUMPDEST PUSH1 0x0 PUSH1 0x20 PUSH1 0x1F DUP4 ADD DIV SWAP1 POP SWAP2 SWAP1 POP JUMP JUMPDEST PUSH1 0x0 DUP3 DUP3 SHL SWAP1 POP SWAP3 SWAP2 POP POP JUMP JUMPDEST PUSH1 0x0 PUSH1 0x8 DUP4 MUL PUSH2 0x21FD PUSH32 0xFFFFFFFFFFFFFFFFFFFFFFFFFFFFFFFFFFFFFFFFFFFFFFFFFFFFFFFFFFFFFFFF DUP3 PUSH2 0x21C0 JUMP JUMPDEST PUSH2 0x2207 DUP7 DUP4 PUSH2 0x21C0 JUMP JUMPDEST SWAP6 POP DUP1 NOT DUP5 AND SWAP4 POP DUP1 DUP7 AND DUP5 OR SWAP3 POP POP POP SWAP4 SWAP3 POP POP POP JUMP JUMPDEST PUSH1 0x0 DUP2 SWAP1 POP SWAP2 SWAP1 POP JUMP JUMPDEST PUSH1 0x0 PUSH2 0x2244 PUSH2 0x223F PUSH2 0x223A DUP5 PUSH2 0x16D9 JUMP JUMPDEST PUSH2 0x221F JUMP JUMPDEST PUSH2 0x16D9 JUMP JUMPDEST SWAP1 POP SWAP2 SWAP1 POP JUMP JUMPDEST PUSH1 0x0 DUP2 SWAP1 POP SWAP2 SWAP1 POP JUMP JUMPDEST PUSH2 0x225E DUP4 PUSH2 0x2229 JUMP JUMPDEST PUSH2 0x2272 PUSH2 0x226A DUP3 PUSH2 0x224B JUMP JUMPDEST DUP5 DUP5 SLOAD PUSH2 0x21CD JUMP JUMPDEST DUP3 SSTORE POP POP POP POP JUMP JUMPDEST PUSH1 0x0 SWAP1 JUMP JUMPDEST PUSH2 0x2287 PUSH2 0x227A JUMP JUMPDEST PUSH2 0x2292 DUP2 DUP5 DUP5 PUSH2 0x2255 JUMP JUMPDEST POP POP POP JUMP JUMPDEST JUMPDEST DUP2 DUP2 LT ISZERO PUSH2 0x22B6 JUMPI PUSH2 0x22AB PUSH1 0x0 DUP3 PUSH2 0x227F JUMP JUMPDEST PUSH1 0x1 DUP2 ADD SWAP1 POP PUSH2 0x2298 JUMP JUMPDEST POP POP JUMP JUMPDEST PUSH1 0x1F DUP3 GT ISZERO PUSH2 0x22FB JUMPI PUSH2 0x22CC DUP2 PUSH2 0x219B JUMP JUMPDEST PUSH2 0x22D5 DUP5 PUSH2 0x21B0 JUMP JUMPDEST DUP2 ADD PUSH1 0x20 DUP6 LT ISZERO PUSH2 0x22E4 JUMPI DUP2 SWAP1 POP JUMPDEST PUSH2 0x22F8 PUSH2 0x22F0 DUP6 PUSH2 0x21B0 JUMP JUMPDEST DUP4 ADD DUP3 PUSH2 0x2297 JUMP JUMPDEST POP POP JUMPDEST POP POP POP JUMP JUMPDEST PUSH1 0x0 DUP3 DUP3 SHR SWAP1 POP SWAP3 SWAP2 POP POP JUMP JUMPDEST PUSH1 0x0 PUSH2 0x231E PUSH1 0x0 NOT DUP5 PUSH1 0x8 MUL PUSH2 0x2300 JUMP JUMPDEST NOT DUP1 DUP4 AND SWAP2 POP POP SWAP3 SWAP2 POP POP JUMP JUMPDEST PUSH1 0x0 PUSH2 0x2337 DUP4 DUP4 PUSH2 0x230D JUMP JUMPDEST SWAP2 POP DUP3 PUSH1 0x2 MUL DUP3 OR SWAP1 POP SWAP3 SWAP2 POP POP JUMP JUMPDEST PUSH2 0x2350 DUP3 PUSH2 0x1649 JUMP JUMPDEST PUSH8 0xFFFFFFFFFFFFFFFF DUP2 GT ISZERO PUSH2 0x2369 JUMPI PUSH2 0x2368 PUSH2 0x19EE JUMP JUMPDEST JUMPDEST PUSH2 0x2373 DUP3 SLOAD PUSH2 0x1F0C JUMP JUMPDEST PUSH2 0x237E DUP3 DUP3 DUP6 PUSH2 0x22BA JUMP JUMPDEST PUSH1 0x0 PUSH1 0x20 SWAP1 POP PUSH1 0x1F DUP4 GT PUSH1 0x1 DUP2 EQ PUSH2 0x23B1 JUMPI PUSH1 0x0 DUP5 ISZERO PUSH2 0x239F JUMPI DUP3 DUP8 ADD MLOAD SWAP1 POP JUMPDEST PUSH2 0x23A9 DUP6 DUP3 PUSH2 0x232B JUMP JUMPDEST DUP7 SSTORE POP PUSH2 0x2411 JUMP JUMPDEST PUSH1 0x1F NOT DUP5 AND PUSH2 0x23BF DUP7 PUSH2 0x219B JUMP JUMPDEST PUSH1 0x0 JUMPDEST DUP3 DUP2 LT ISZERO PUSH2 0x23E7 JUMPI DUP5 DUP10 ADD MLOAD DUP3 SSTORE PUSH1 0x1 DUP3 ADD SWAP2 POP PUSH1 0x20 DUP6 ADD SWAP5 POP PUSH1 0x20 DUP2 ADD SWAP1 POP PUSH2 0x23C2 JUMP JUMPDEST DUP7 DUP4 LT ISZERO PUSH2 0x2404 JUMPI DUP5 DUP10 ADD MLOAD PUSH2 0x2400 PUSH1 0x1F DUP10 AND DUP3 PUSH2 0x230D JUMP JUMPDEST DUP4 SSTORE POP JUMPDEST PUSH1 0x1 PUSH1 0x2 DUP9 MUL ADD DUP9 SSTORE POP POP POP JUMPDEST POP POP POP POP POP POP JUMP JUMPDEST PUSH32 0x55736572206E6F7420666F756E64000000000000000000000000000000000000 PUSH1 0x0 DUP3 ADD MSTORE POP JUMP JUMPDEST PUSH1 0x0 PUSH2 0x244F PUSH1 0xE DUP4 PUSH2 0x1978 JUMP JUMPDEST SWAP2 POP PUSH2 0x245A DUP3 PUSH2 0x2419 JUMP JUMPDEST PUSH1 0x20 DUP3 ADD SWAP1 POP SWAP2 SWAP1 POP JUMP JUMPDEST PUSH1 0x0 PUSH1 0x20 DUP3 ADD SWAP1 POP DUP2 DUP2 SUB PUSH1 0x0 DUP4 ADD MSTORE PUSH2 0x247E DUP2 PUSH2 0x2442 JUMP JUMPDEST SWAP1 POP SWAP2 SWAP1 POP JUMP INVALID LOG2 PUSH5 0x6970667358 0x22 SLT KECCAK256 0xD7 MSTORE JUMPI NOT 0xDD 0xEB 0xC5 DUP2 JUMPDEST LOG2 PUSH7 0xC190694ED2BFA6 0xC1 0x2C 0xCD DUP12 SWAP13 0x21 0xEC 0xC0 0xBE 0xF7 PUSH27 0x79674664736F6C6343000811003300000000000000000000000000 "},"methodIdentifiers":{"checkForValidSignUp(uint256)":"53f2dc99","getMap(uint256)":"025799f0","getUser(uint256)":"b0467deb","getUsers()":"00ce8e3e","login(uint256,string)":"2c4f5a17","signUp(string,string,uint256,uint256,string,string,string,string,string,string,string)":"4d4ebb0f"}}}}}