{
  "_format": "hh-sol-artifact-1",
  "contractName": "Users",
  "sourceName": "contracts/User.sol",
  "abi": [
    {
      "inputs": [
        {
          "internalType": "uint256",
          "name": "UserID",
          "type": "uint256"
        }
      ],
      "name": "checkForValidSignUp",
      "outputs": [
        {
          "internalType": "bool",
          "name": "",
          "type": "bool"
        }
      ],
      "stateMutability": "view",
      "type": "function"
    },
    {
      "inputs": [
        {
          "internalType": "uint256",
          "name": "UserID",
          "type": "uint256"
        }
      ],
      "name": "getMap",
      "outputs": [
        {
          "internalType": "string",
          "name": "",
          "type": "string"
        }
      ],
      "stateMutability": "view",
      "type": "function"
    },
    {
      "inputs": [
        {
          "internalType": "uint256",
          "name": "UserID",
          "type": "uint256"
        }
      ],
      "name": "getUser",
      "outputs": [
        {
          "components": [
            {
              "internalType": "string",
              "name": "firstname",
              "type": "string"
            },
            {
              "internalType": "string",
              "name": "lastname",
              "type": "string"
            },
            {
              "internalType": "uint256",
              "name": "UserID",
              "type": "uint256"
            },
            {
              "internalType": "uint256",
              "name": "age",
              "type": "uint256"
            },
            {
              "internalType": "string",
              "name": "houseaddress",
              "type": "string"
            },
            {
              "internalType": "string",
              "name": "gender",
              "type": "string"
            },
            {
              "internalType": "string",
              "name": "email",
              "type": "string"
            },
            {
              "internalType": "string",
              "name": "aadhaarNumber",
              "type": "string"
            },
            {
              "internalType": "string",
              "name": "imageUrl",
              "type": "string"
            },
            {
              "internalType": "string",
              "name": "voterConstituency",
              "type": "string"
            },
            {
              "internalType": "address",
              "name": "userAddress",
              "type": "address"
            }
          ],
          "internalType": "struct Users.User",
          "name": "",
          "type": "tuple"
        }
      ],
      "stateMutability": "view",
      "type": "function"
    },
    {
      "inputs": [],
      "name": "getUsers",
      "outputs": [
        {
          "components": [
            {
              "internalType": "string",
              "name": "firstname",
              "type": "string"
            },
            {
              "internalType": "string",
              "name": "lastname",
              "type": "string"
            },
            {
              "internalType": "uint256",
              "name": "UserID",
              "type": "uint256"
            },
            {
              "internalType": "uint256",
              "name": "age",
              "type": "uint256"
            },
            {
              "internalType": "string",
              "name": "houseaddress",
              "type": "string"
            },
            {
              "internalType": "string",
              "name": "gender",
              "type": "string"
            },
            {
              "internalType": "string",
              "name": "email",
              "type": "string"
            },
            {
              "internalType": "string",
              "name": "aadhaarNumber",
              "type": "string"
            },
            {
              "internalType": "string",
              "name": "imageUrl",
              "type": "string"
            },
            {
              "internalType": "string",
              "name": "voterConstituency",
              "type": "string"
            },
            {
              "internalType": "address",
              "name": "userAddress",
              "type": "address"
            }
          ],
          "internalType": "struct Users.User[]",
          "name": "",
          "type": "tuple[]"
        }
      ],
      "stateMutability": "view",
      "type": "function"
    },
    {
      "inputs": [
        {
          "internalType": "uint256",
          "name": "UserID",
          "type": "uint256"
        },
        {
          "internalType": "string",
          "name": "password",
          "type": "string"
        }
      ],
      "name": "login",
      "outputs": [
        {
          "components": [
            {
              "internalType": "string",
              "name": "firstname",
              "type": "string"
            },
            {
              "internalType": "string",
              "name": "lastname",
              "type": "string"
            },
            {
              "internalType": "uint256",
              "name": "UserID",
              "type": "uint256"
            },
            {
              "internalType": "uint256",
              "name": "age",
              "type": "uint256"
            },
            {
              "internalType": "string",
              "name": "houseaddress",
              "type": "string"
            },
            {
              "internalType": "string",
              "name": "gender",
              "type": "string"
            },
            {
              "internalType": "string",
              "name": "email",
              "type": "string"
            },
            {
              "internalType": "string",
              "name": "aadhaarNumber",
              "type": "string"
            },
            {
              "internalType": "string",
              "name": "imageUrl",
              "type": "string"
            },
            {
              "internalType": "string",
              "name": "voterConstituency",
              "type": "string"
            },
            {
              "internalType": "address",
              "name": "userAddress",
              "type": "address"
            }
          ],
          "internalType": "struct Users.User",
          "name": "",
          "type": "tuple"
        }
      ],
      "stateMutability": "view",
      "type": "function"
    },
    {
      "inputs": [
        {
          "internalType": "string",
          "name": "firstname",
          "type": "string"
        },
        {
          "internalType": "string",
          "name": "lastname",
          "type": "string"
        },
        {
          "internalType": "uint256",
          "name": "UserID",
          "type": "uint256"
        },
        {
          "internalType": "uint256",
          "name": "age",
          "type": "uint256"
        },
        {
          "internalType": "string",
          "name": "password",
          "type": "string"
        },
        {
          "internalType": "string",
          "name": "houseaddress",
          "type": "string"
        },
        {
          "internalType": "string",
          "name": "gender",
          "type": "string"
        },
        {
          "internalType": "string",
          "name": "email",
          "type": "string"
        },
        {
          "internalType": "string",
          "name": "aadhaarNumber",
          "type": "string"
        },
        {
          "internalType": "string",
          "name": "imageUrl",
          "type": "string"
        },
        {
          "internalType": "string",
          "name": "voterConstituency",
          "type": "string"
        }
      ],
      "name": "signUp",
      "outputs": [],
      "stateMutability": "nonpayable",
      "type": "function"
    }
  ],
  "bytecode": "0x608060405234801561001057600080fd5b506124bb806100206000396000f3fe608060405234801561001057600080fd5b50600436106100615760003560e01c8062ce8e3e14610066578063025799f0146100845780632c4f5a17146100b45780634d4ebb0f146100e457806353f2dc9914610100578063b0467deb14610130575b600080fd5b61006e610160565b60405161007b91906118e9565b60405180910390f35b61009e6004803603810190610099919061194b565b6106ba565b6040516100ab91906119c2565b60405180910390f35b6100ce60048036038101906100c99190611b19565b61075e565b6040516100db9190611c95565b60405180910390f35b6100fe60048036038101906100f99190611cb7565b610d5c565b005b61011a6004803603810190610115919061194b565b610f7c565b6040516101279190611ec2565b60405180910390f35b61014a6004803603810190610145919061194b565b610fe5565b6040516101579190611c95565b60405180910390f35b60606001805480602002602001604051908101604052809291908181526020016000905b828210156106b157838290600052602060002090600b0201604051806101600160405290816000820180546101b890611f0c565b80601f01602080910402602001604051908101604052809291908181526020018280546101e490611f0c565b80156102315780601f1061020657610100808354040283529160200191610231565b820191906000526020600020905b81548152906001019060200180831161021457829003601f168201915b5050505050815260200160018201805461024a90611f0c565b80601f016020809104026020016040519081016040528092919081815260200182805461027690611f0c565b80156102c35780601f10610298576101008083540402835291602001916102c3565b820191906000526020600020905b8154815290600101906020018083116102a657829003601f168201915b5050505050815260200160028201548152602001600382015481526020016004820180546102f090611f0c565b80601f016020809104026020016040519081016040528092919081815260200182805461031c90611f0c565b80156103695780601f1061033e57610100808354040283529160200191610369565b820191906000526020600020905b81548152906001019060200180831161034c57829003601f168201915b5050505050815260200160058201805461038290611f0c565b80601f01602080910402602001604051908101604052809291908181526020018280546103ae90611f0c565b80156103fb5780601f106103d0576101008083540402835291602001916103fb565b820191906000526020600020905b8154815290600101906020018083116103de57829003601f168201915b5050505050815260200160068201805461041490611f0c565b80601f016020809104026020016040519081016040528092919081815260200182805461044090611f0c565b801561048d5780601f106104625761010080835404028352916020019161048d565b820191906000526020600020905b81548152906001019060200180831161047057829003601f168201915b505050505081526020016007820180546104a690611f0c565b80601f01602080910402602001604051908101604052809291908181526020018280546104d290611f0c565b801561051f5780601f106104f45761010080835404028352916020019161051f565b820191906000526020600020905b81548152906001019060200180831161050257829003601f168201915b5050505050815260200160088201805461053890611f0c565b80601f016020809104026020016040519081016040528092919081815260200182805461056490611f0c565b80156105b15780601f10610586576101008083540402835291602001916105b1565b820191906000526020600020905b81548152906001019060200180831161059457829003601f168201915b505050505081526020016009820180546105ca90611f0c565b80601f01602080910402602001604051908101604052809291908181526020018280546105f690611f0c565b80156106435780601f1061061857610100808354040283529160200191610643565b820191906000526020600020905b81548152906001019060200180831161062657829003601f168201915b50505050508152602001600a820160009054906101000a900473ffffffffffffffffffffffffffffffffffffffff1673ffffffffffffffffffffffffffffffffffffffff1673ffffffffffffffffffffffffffffffffffffffff168152505081526020019060010190610184565b50505050905090565b606060008083815260200190815260200160002080546106d990611f0c565b80601f016020809104026020016040519081016040528092919081815260200182805461070590611f0c565b80156107525780601f1061072757610100808354040283529160200191610752565b820191906000526020600020905b81548152906001019060200180831161073557829003601f168201915b50505050509050919050565b6107666115ad565b818051906020012060008085815260200190815260200160002060405161078d9190611fe0565b604051809103902003610d1b5760005b600180549050811015610d195783600182815481106107bf576107be611ff7565b5b90600052602060002090600b02016002015403610d0657600181815481106107ea576107e9611ff7565b5b90600052602060002090600b02016040518061016001604052908160008201805461081490611f0c565b80601f016020809104026020016040519081016040528092919081815260200182805461084090611f0c565b801561088d5780601f106108625761010080835404028352916020019161088d565b820191906000526020600020905b81548152906001019060200180831161087057829003601f168201915b505050505081526020016001820180546108a690611f0c565b80601f01602080910402602001604051908101604052809291908181526020018280546108d290611f0c565b801561091f5780601f106108f45761010080835404028352916020019161091f565b820191906000526020600020905b81548152906001019060200180831161090257829003601f168201915b50505050508152602001600282015481526020016003820154815260200160048201805461094c90611f0c565b80601f016020809104026020016040519081016040528092919081815260200182805461097890611f0c565b80156109c55780601f1061099a576101008083540402835291602001916109c5565b820191906000526020600020905b8154815290600101906020018083116109a857829003601f168201915b505050505081526020016005820180546109de90611f0c565b80601f0160208091040260200160405190810160405280929190818152602001828054610a0a90611f0c565b8015610a575780601f10610a2c57610100808354040283529160200191610a57565b820191906000526020600020905b815481529060010190602001808311610a3a57829003601f168201915b50505050508152602001600682018054610a7090611f0c565b80601f0160208091040260200160405190810160405280929190818152602001828054610a9c90611f0c565b8015610ae95780601f10610abe57610100808354040283529160200191610ae9565b820191906000526020600020905b815481529060010190602001808311610acc57829003601f168201915b50505050508152602001600782018054610b0290611f0c565b80601f0160208091040260200160405190810160405280929190818152602001828054610b2e90611f0c565b8015610b7b5780601f10610b5057610100808354040283529160200191610b7b565b820191906000526020600020905b815481529060010190602001808311610b5e57829003601f168201915b50505050508152602001600882018054610b9490611f0c565b80601f0160208091040260200160405190810160405280929190818152602001828054610bc090611f0c565b8015610c0d5780601f10610be257610100808354040283529160200191610c0d565b820191906000526020600020905b815481529060010190602001808311610bf057829003601f168201915b50505050508152602001600982018054610c2690611f0c565b80601f0160208091040260200160405190810160405280929190818152602001828054610c5290611f0c565b8015610c9f5780601f10610c7457610100808354040283529160200191610c9f565b820191906000526020600020905b815481529060010190602001808311610c8257829003601f168201915b50505050508152602001600a820160009054906101000a900473ffffffffffffffffffffffffffffffffffffffff1673ffffffffffffffffffffffffffffffffffffffff1673ffffffffffffffffffffffffffffffffffffffff1681525050915050610d56565b8080610d1190612055565b91505061079d565b505b6040517f08c379a0000000000000000000000000000000000000000000000000000000008152600401610d4d9061210f565b60405180910390fd5b92915050565b610d6589610f7c565b15610dac576000610dab576040517f08c379a0000000000000000000000000000000000000000000000000000000008152600401610da29061217b565b60405180910390fd5b5b60006040518061016001604052808d81526020018c81526020018b81526020018a81526020018881526020018781526020018681526020018581526020018481526020018381526020013373ffffffffffffffffffffffffffffffffffffffff16815250905060018190806001815401808255809150506001900390600052602060002090600b02016000909190919091506000820151816000019081610e539190612347565b506020820151816001019081610e699190612347565b5060408201518160020155606082015181600301556080820151816004019081610e939190612347565b5060a0820151816005019081610ea99190612347565b5060c0820151816006019081610ebf9190612347565b5060e0820151816007019081610ed59190612347565b50610100820151816008019081610eec9190612347565b50610120820151816009019081610f039190612347565b5061014082015181600a0160006101000a81548173ffffffffffffffffffffffffffffffffffffffff021916908373ffffffffffffffffffffffffffffffffffffffff1602179055505050876000808c81526020019081526020016000209081610f6d9190612347565b50505050505050505050505050565b600080600090505b600180549050811015610fda578260018281548110610fa657610fa5611ff7565b5b90600052602060002090600b02016002015403610fc7576001915050610fe0565b8080610fd290612055565b915050610f84565b50600090505b919050565b610fed6115ad565b60005b60018054905081101561156c57826001828154811061101257611011611ff7565b5b90600052602060002090600b02016002015403611559576001818154811061103d5761103c611ff7565b5b90600052602060002090600b02016040518061016001604052908160008201805461106790611f0c565b80601f016020809104026020016040519081016040528092919081815260200182805461109390611f0c565b80156110e05780601f106110b5576101008083540402835291602001916110e0565b820191906000526020600020905b8154815290600101906020018083116110c357829003601f168201915b505050505081526020016001820180546110f990611f0c565b80601f016020809104026020016040519081016040528092919081815260200182805461112590611f0c565b80156111725780601f1061114757610100808354040283529160200191611172565b820191906000526020600020905b81548152906001019060200180831161115557829003601f168201915b50505050508152602001600282015481526020016003820154815260200160048201805461119f90611f0c565b80601f01602080910402602001604051908101604052809291908181526020018280546111cb90611f0c565b80156112185780601f106111ed57610100808354040283529160200191611218565b820191906000526020600020905b8154815290600101906020018083116111fb57829003601f168201915b5050505050815260200160058201805461123190611f0c565b80601f016020809104026020016040519081016040528092919081815260200182805461125d90611f0c565b80156112aa5780601f1061127f576101008083540402835291602001916112aa565b820191906000526020600020905b81548152906001019060200180831161128d57829003601f168201915b505050505081526020016006820180546112c390611f0c565b80601f01602080910402602001604051908101604052809291908181526020018280546112ef90611f0c565b801561133c5780601f106113115761010080835404028352916020019161133c565b820191906000526020600020905b81548152906001019060200180831161131f57829003601f168201915b5050505050815260200160078201805461135590611f0c565b80601f016020809104026020016040519081016040528092919081815260200182805461138190611f0c565b80156113ce5780601f106113a3576101008083540402835291602001916113ce565b820191906000526020600020905b8154815290600101906020018083116113b157829003601f168201915b505050505081526020016008820180546113e790611f0c565b80601f016020809104026020016040519081016040528092919081815260200182805461141390611f0c565b80156114605780601f1061143557610100808354040283529160200191611460565b820191906000526020600020905b81548152906001019060200180831161144357829003601f168201915b5050505050815260200160098201805461147990611f0c565b80601f01602080910402602001604051908101604052809291908181526020018280546114a590611f0c565b80156114f25780601f106114c7576101008083540402835291602001916114f2565b820191906000526020600020905b8154815290600101906020018083116114d557829003601f168201915b50505050508152602001600a820160009054906101000a900473ffffffffffffffffffffffffffffffffffffffff1673ffffffffffffffffffffffffffffffffffffffff1673ffffffffffffffffffffffffffffffffffffffff16815250509150506115a8565b808061156490612055565b915050610ff0565b506040517f08c379a000000000000000000000000000000000000000000000000000000000815260040161159f90612465565b60405180910390fd5b919050565b60405180610160016040528060608152602001606081526020016000815260200160008152602001606081526020016060815260200160608152602001606081526020016060815260200160608152602001600073ffffffffffffffffffffffffffffffffffffffff1681525090565b600081519050919050565b600082825260208201905092915050565b6000819050602082019050919050565b600081519050919050565b600082825260208201905092915050565b60005b83811015611683578082015181840152602081019050611668565b60008484015250505050565b6000601f19601f8301169050919050565b60006116ab82611649565b6116b58185611654565b93506116c5818560208601611665565b6116ce8161168f565b840191505092915050565b6000819050919050565b6116ec816116d9565b82525050565b600073ffffffffffffffffffffffffffffffffffffffff82169050919050565b600061171d826116f2565b9050919050565b61172d81611712565b82525050565b600061016083016000830151848203600086015261175182826116a0565b9150506020830151848203602086015261176b82826116a0565b915050604083015161178060408601826116e3565b50606083015161179360608601826116e3565b50608083015184820360808601526117ab82826116a0565b91505060a083015184820360a08601526117c582826116a0565b91505060c083015184820360c08601526117df82826116a0565b91505060e083015184820360e08601526117f982826116a0565b91505061010083015184820361010086015261181582826116a0565b91505061012083015184820361012086015261183182826116a0565b915050610140830151611848610140860182611724565b508091505092915050565b600061185f8383611733565b905092915050565b6000602082019050919050565b600061187f8261161d565b6118898185611628565b93508360208202850161189b85611639565b8060005b858110156118d757848403895281516118b88582611853565b94506118c383611867565b925060208a0199505060018101905061189f565b50829750879550505050505092915050565b600060208201905081810360008301526119038184611874565b905092915050565b6000604051905090565b600080fd5b600080fd5b611928816116d9565b811461193357600080fd5b50565b6000813590506119458161191f565b92915050565b60006020828403121561196157611960611915565b5b600061196f84828501611936565b91505092915050565b600082825260208201905092915050565b600061199482611649565b61199e8185611978565b93506119ae818560208601611665565b6119b78161168f565b840191505092915050565b600060208201905081810360008301526119dc8184611989565b905092915050565b600080fd5b600080fd5b7f4e487b7100000000000000000000000000000000000000000000000000000000600052604160045260246000fd5b611a268261168f565b810181811067ffffffffffffffff82111715611a4557611a446119ee565b5b80604052505050565b6000611a5861190b565b9050611a648282611a1d565b919050565b600067ffffffffffffffff821115611a8457611a836119ee565b5b611a8d8261168f565b9050602081019050919050565b82818337600083830152505050565b6000611abc611ab784611a69565b611a4e565b905082815260208101848484011115611ad857611ad76119e9565b5b611ae3848285611a9a565b509392505050565b600082601f830112611b0057611aff6119e4565b5b8135611b10848260208601611aa9565b91505092915050565b60008060408385031215611b3057611b2f611915565b5b6000611b3e85828601611936565b925050602083013567ffffffffffffffff811115611b5f57611b5e61191a565b5b611b6b85828601611aeb565b9150509250929050565b6000610160830160008301518482036000860152611b9382826116a0565b91505060208301518482036020860152611bad82826116a0565b9150506040830151611bc260408601826116e3565b506060830151611bd560608601826116e3565b5060808301518482036080860152611bed82826116a0565b91505060a083015184820360a0860152611c0782826116a0565b91505060c083015184820360c0860152611c2182826116a0565b91505060e083015184820360e0860152611c3b82826116a0565b915050610100830151848203610100860152611c5782826116a0565b915050610120830151848203610120860152611c7382826116a0565b915050610140830151611c8a610140860182611724565b508091505092915050565b60006020820190508181036000830152611caf8184611b75565b905092915050565b60008060008060008060008060008060006101608c8e031215611cdd57611cdc611915565b5b60008c013567ffffffffffffffff811115611cfb57611cfa61191a565b5b611d078e828f01611aeb565b9b505060208c013567ffffffffffffffff811115611d2857611d2761191a565b5b611d348e828f01611aeb565b9a50506040611d458e828f01611936565b9950506060611d568e828f01611936565b98505060808c013567ffffffffffffffff811115611d7757611d7661191a565b5b611d838e828f01611aeb565b97505060a08c013567ffffffffffffffff811115611da457611da361191a565b5b611db08e828f01611aeb565b96505060c08c013567ffffffffffffffff811115611dd157611dd061191a565b5b611ddd8e828f01611aeb565b95505060e08c013567ffffffffffffffff811115611dfe57611dfd61191a565b5b611e0a8e828f01611aeb565b9450506101008c013567ffffffffffffffff811115611e2c57611e2b61191a565b5b611e388e828f01611aeb565b9350506101208c013567ffffffffffffffff811115611e5a57611e5961191a565b5b611e668e828f01611aeb565b9250506101408c013567ffffffffffffffff811115611e8857611e8761191a565b5b611e948e828f01611aeb565b9150509295989b509295989b9093969950565b60008115159050919050565b611ebc81611ea7565b82525050565b6000602082019050611ed76000830184611eb3565b92915050565b7f4e487b7100000000000000000000000000000000000000000000000000000000600052602260045260246000fd5b60006002820490506001821680611f2457607f821691505b602082108103611f3757611f36611edd565b5b50919050565b600081905092915050565b60008190508160005260206000209050919050565b60008154611f6a81611f0c565b611f748186611f3d565b94506001821660008114611f8f5760018114611fa457611fd7565b60ff1983168652811515820286019350611fd7565b611fad85611f48565b60005b83811015611fcf57815481890152600182019150602081019050611fb0565b838801955050505b50505092915050565b6000611fec8284611f5d565b915081905092915050565b7f4e487b7100000000000000000000000000000000000000000000000000000000600052603260045260246000fd5b7f4e487b7100000000000000000000000000000000000000000000000000000000600052601160045260246000fd5b6000612060826116d9565b91507fffffffffffffffffffffffffffffffffffffffffffffffffffffffffffffffff820361209257612091612026565b5b600182019050919050565b7f55736572206e6f7420666f756e64206f722070617373776f726420697320696e60008201527f636f727265637400000000000000000000000000000000000000000000000000602082015250565b60006120f9602783611978565b91506121048261209d565b604082019050919050565b60006020820190508181036000830152612128816120ec565b9050919050565b7f4e6f7420616c6c6f776564000000000000000000000000000000000000000000600082015250565b6000612165600b83611978565b91506121708261212f565b602082019050919050565b6000602082019050818103600083015261219481612158565b9050919050565b60008190508160005260206000209050919050565b60006020601f8301049050919050565b600082821b905092915050565b6000600883026121fd7fffffffffffffffffffffffffffffffffffffffffffffffffffffffffffffffff826121c0565b61220786836121c0565b95508019841693508086168417925050509392505050565b6000819050919050565b600061224461223f61223a846116d9565b61221f565b6116d9565b9050919050565b6000819050919050565b61225e83612229565b61227261226a8261224b565b8484546121cd565b825550505050565b600090565b61228761227a565b612292818484612255565b505050565b5b818110156122b6576122ab60008261227f565b600181019050612298565b5050565b601f8211156122fb576122cc8161219b565b6122d5846121b0565b810160208510156122e4578190505b6122f86122f0856121b0565b830182612297565b50505b505050565b600082821c905092915050565b600061231e60001984600802612300565b1980831691505092915050565b6000612337838361230d565b9150826002028217905092915050565b61235082611649565b67ffffffffffffffff811115612369576123686119ee565b5b6123738254611f0c565b61237e8282856122ba565b600060209050601f8311600181146123b1576000841561239f578287015190505b6123a9858261232b565b865550612411565b601f1984166123bf8661219b565b60005b828110156123e7578489015182556001820191506020850194506020810190506123c2565b868310156124045784890151612400601f89168261230d565b8355505b6001600288020188555050505b505050505050565b7f55736572206e6f7420666f756e64000000000000000000000000000000000000600082015250565b600061244f600e83611978565b915061245a82612419565b602082019050919050565b6000602082019050818103600083015261247e81612442565b905091905056fea2646970667358221220d7525719ddebc5815ba266c190694ed2bfa6c12ccd8b9c21ecc0bef77a79674664736f6c63430008110033",
  "linkReferences": {},
  "deployedLinkReferences": {}
}