{
  "_format": "hh-sol-artifact-1",
  "contractName": "Voting",
  "sourceName": "contracts/Voting.sol",
  "abi": [
    {
      "inputs": [],
      "stateMutability": "payable",
      "type": "constructor"
    },
    {
      "inputs": [
        {
          "internalType": "uint256",
          "name": "contestIdx",
          "type": "uint256"
        },
        {
          "internalType": "uint256",
          "name": "participantUserID",
          "type": "uint256"
        },
        {
          "internalType": "uint256",
          "name": "userID",
          "type": "uint256"
        }
      ],
      "name": "addParticipant",
      "outputs": [],
      "stateMutability": "nonpayable",
      "type": "function"
    },
    {
      "inputs": [
        {
          "internalType": "uint256",
          "name": "contestIdx",
          "type": "uint256"
        },
        {
          "internalType": "uint256",
          "name": "participantUserID",
          "type": "uint256"
        }
      ],
      "name": "addRequestParticipant",
      "outputs": [],
      "stateMutability": "nonpayable",
      "type": "function"
    },
    {
      "inputs": [
        {
          "internalType": "uint256",
          "name": "newOwnerUserID",
          "type": "uint256"
        }
      ],
      "name": "addToOwners",
      "outputs": [],
      "stateMutability": "nonpayable",
      "type": "function"
    },
    {
      "inputs": [
        {
          "internalType": "uint256",
          "name": "",
          "type": "uint256"
        }
      ],
      "name": "contests",
      "outputs": [
        {
          "internalType": "string",
          "name": "title",
          "type": "string"
        },
        {
          "internalType": "uint256",
          "name": "totalVotes",
          "type": "uint256"
        },
        {
          "internalType": "bool",
          "name": "isContestStarted",
          "type": "bool"
        },
        {
          "internalType": "bool",
          "name": "isContestEnded",
          "type": "bool"
        }
      ],
      "stateMutability": "view",
      "type": "function"
    },
    {
      "inputs": [
        {
          "internalType": "string",
          "name": "title",
          "type": "string"
        },
        {
          "internalType": "uint256[]",
          "name": "participants",
          "type": "uint256[]"
        },
        {
          "internalType": "uint256",
          "name": "newOwnerUserID",
          "type": "uint256"
        }
      ],
      "name": "createContest",
      "outputs": [],
      "stateMutability": "payable",
      "type": "function"
    },
    {
      "inputs": [
        {
          "internalType": "uint256",
          "name": "contestIdx",
          "type": "uint256"
        },
        {
          "internalType": "uint256",
          "name": "newOwnerUserID",
          "type": "uint256"
        }
      ],
      "name": "endContest",
      "outputs": [],
      "stateMutability": "nonpayable",
      "type": "function"
    },
    {
      "inputs": [],
      "name": "getAllContests",
      "outputs": [
        {
          "components": [
            {
              "internalType": "string",
              "name": "title",
              "type": "string"
            },
            {
              "internalType": "uint256[]",
              "name": "participants",
              "type": "uint256[]"
            },
            {
              "internalType": "uint256[]",
              "name": "requestParticipants",
              "type": "uint256[]"
            },
            {
              "internalType": "uint256",
              "name": "totalVotes",
              "type": "uint256"
            },
            {
              "internalType": "uint256[]",
              "name": "hasVoted",
              "type": "uint256[]"
            },
            {
              "internalType": "uint256[]",
              "name": "participantsVotes",
              "type": "uint256[]"
            },
            {
              "internalType": "bool",
              "name": "isContestStarted",
              "type": "bool"
            },
            {
              "internalType": "bool",
              "name": "isContestEnded",
              "type": "bool"
            }
          ],
          "internalType": "struct Voting.Contest[]",
          "name": "",
          "type": "tuple[]"
        }
      ],
      "stateMutability": "view",
      "type": "function"
    },
    {
      "inputs": [
        {
          "internalType": "uint256",
          "name": "newOwnerUserID",
          "type": "uint256"
        }
      ],
      "name": "isOwner",
      "outputs": [
        {
          "internalType": "bool",
          "name": "",
          "type": "bool"
        }
      ],
      "stateMutability": "view",
      "type": "function"
    },
    {
      "inputs": [
        {
          "internalType": "uint256",
          "name": "",
          "type": "uint256"
        }
      ],
      "name": "ownersByUserID",
      "outputs": [
        {
          "internalType": "uint256",
          "name": "",
          "type": "uint256"
        }
      ],
      "stateMutability": "view",
      "type": "function"
    },
    {
      "inputs": [
        {
          "internalType": "uint256",
          "name": "contestIdx",
          "type": "uint256"
        },
        {
          "internalType": "uint256",
          "name": "newOwnerUserID",
          "type": "uint256"
        }
      ],
      "name": "startContest",
      "outputs": [],
      "stateMutability": "nonpayable",
      "type": "function"
    },
    {
      "inputs": [
        {
          "internalType": "uint256",
          "name": "contestIdx",
          "type": "uint256"
        },
        {
          "internalType": "uint256",
          "name": "participantUserID",
          "type": "uint256"
        },
        {
          "internalType": "uint256",
          "name": "UserID",
          "type": "uint256"
        }
      ],
      "name": "vote",
      "outputs": [],
      "stateMutability": "nonpayable",
      "type": "function"
    }
  ],
  "bytecode": "0x608060405233600260006101000a81548173ffffffffffffffffffffffffffffffffffffffff021916908373ffffffffffffffffffffffffffffffffffffffff160217905550612564806100546000396000f3fe60806040526004361061009c5760003560e01c80638a6655d6116100645780638a6655d6146101845780639d7ed738146101ad578063aa203584146101ed578063b16b4e5814610209578063cd5b7c7f14610246578063df4a34bf1461026f5761009c565b806303cfb847146100a15780632ce144cc146100cc57806339c7639c146100f55780634fc0371a14610132578063595e3bd91461015b575b600080fd5b3480156100ad57600080fd5b506100b6610298565b6040516100c391906118ca565b60405180910390f35b3480156100d857600080fd5b506100f360048036038101906100ee919061192c565b61052a565b005b34801561010157600080fd5b5061011c6004803603810190610117919061192c565b6106c6565b6040516101299190611968565b60405180910390f35b34801561013e57600080fd5b5061015960048036038101906101549190611983565b610728565b005b34801561016757600080fd5b50610182600480360381019061017d91906119c3565b61089d565b005b34801561019057600080fd5b506101ab60048036038101906101a691906119c3565b610b27565b005b3480156101b957600080fd5b506101d460048036038101906101cf919061192c565b610d8f565b6040516101e49493929190611a6f565b60405180910390f35b61020760048036038101906102029190611cb8565b610e71565b005b34801561021557600080fd5b50610230600480360381019061022b919061192c565b61117f565b60405161023d9190611d43565b60405180910390f35b34801561025257600080fd5b5061026d60048036038101906102689190611983565b6111a3565b005b34801561027b57600080fd5b5061029660048036038101906102919190611983565b611340565b005b60606000805480602002602001604051908101604052809291908181526020016000905b828210156105215783829060005260206000209060070201604051806101000160405290816000820180546102f090611d8d565b80601f016020809104026020016040519081016040528092919081815260200182805461031c90611d8d565b80156103695780601f1061033e57610100808354040283529160200191610369565b820191906000526020600020905b81548152906001019060200180831161034c57829003601f168201915b50505050508152602001600182018054806020026020016040519081016040528092919081815260200182805480156103c157602002820191906000526020600020905b8154815260200190600101908083116103ad575b505050505081526020016002820180548060200260200160405190810160405280929190818152602001828054801561041957602002820191906000526020600020905b815481526020019060010190808311610405575b50505050508152602001600382015481526020016004820180548060200260200160405190810160405280929190818152602001828054801561047b57602002820191906000526020600020905b815481526020019060010190808311610467575b50505050508152602001600582018054806020026020016040519081016040528092919081815260200182805480156104d357602002820191906000526020600020905b8154815260200190600101908083116104bf575b505050505081526020016006820160009054906101000a900460ff161515151581526020016006820160019054906101000a900460ff161515151581525050815260200190600101906102bc565b50505050905090565b80600260009054906101000a900473ffffffffffffffffffffffffffffffffffffffff1673ffffffffffffffffffffffffffffffffffffffff163373ffffffffffffffffffffffffffffffffffffffff1614610615576000805b6001805490508110156105d25782600182815481106105a6576105a5611dbe565b5b9060005260206000200154036105bf57600191506105d2565b80806105ca90611e1c565b915050610584565b5080610613576040517f08c379a000000000000000000000000000000000000000000000000000000000815260040161060a90611ed6565b60405180910390fd5b505b60005b60018054905081101561069857826001828154811061063a57610639611dbe565b5b906000526020600020015414610685576040517f08c379a000000000000000000000000000000000000000000000000000000000815260040161067c90611f42565b60405180910390fd5b808061069090611e1c565b915050610618565b5060018290806001815401808255809150506001900390600052602060002001600090919091909150555050565b6000806000905060005b60018054905081101561071e5783600182815481106106f2576106f1611dbe565b5b90600052602060002001540361070b576001915061071e565b808061071690611e1c565b9150506106d0565b5080915050919050565b80600260009054906101000a900473ffffffffffffffffffffffffffffffffffffffff1673ffffffffffffffffffffffffffffffffffffffff163373ffffffffffffffffffffffffffffffffffffffff1614610813576000805b6001805490508110156107d05782600182815481106107a4576107a3611dbe565b5b9060005260206000200154036107bd57600191506107d0565b80806107c890611e1c565b915050610782565b5080610811576040517f08c379a000000000000000000000000000000000000000000000000000000000815260040161080890611ed6565b60405180910390fd5b505b600080549050831061085a576040517f08c379a000000000000000000000000000000000000000000000000000000000815260040161085190611fae565b60405180910390fd5b6001600084815481106108705761086f611dbe565b5b906000526020600020906007020160060160016101000a81548160ff021916908315150217905550505050565b80600260009054906101000a900473ffffffffffffffffffffffffffffffffffffffff1673ffffffffffffffffffffffffffffffffffffffff163373ffffffffffffffffffffffffffffffffffffffff1614610988576000805b60018054905081101561094557826001828154811061091957610918611dbe565b5b9060005260206000200154036109325760019150610945565b808061093d90611e1c565b9150506108f7565b5080610986576040517f08c379a000000000000000000000000000000000000000000000000000000000815260040161097d90611ed6565b60405180910390fd5b505b60008054905084106109cf576040517f08c379a00000000000000000000000000000000000000000000000000000000081526004016109c690611fae565b60405180910390fd5b60001515600085815481106109e7576109e6611dbe565b5b906000526020600020906007020160060160009054906101000a900460ff16151514610a48576040517f08c379a0000000000000000000000000000000000000000000000000000000008152600401610a3f9061201a565b60405180910390fd5b6000808581548110610a5d57610a5c611dbe565b5b9060005260206000209060070201905060005b8160010180549050811015610af45784826001018281548110610a9657610a95611dbe565b5b906000526020600020015403610ae1576040517f08c379a0000000000000000000000000000000000000000000000000000000008152600401610ad890612086565b60405180910390fd5b8080610aec90611e1c565b915050610a70565b50806001018490806001815401808255809150506001900390600052602060002001600090919091909150555050505050565b6000805490508310610b6e576040517f08c379a0000000000000000000000000000000000000000000000000000000008152600401610b6590611fae565b60405180910390fd5b6000808481548110610b8357610b82611dbe565b5b906000526020600020906007020190508060060160009054906101000a900460ff16610be4576040517f08c379a0000000000000000000000000000000000000000000000000000000008152600401610bdb906120f2565b60405180910390fd5b600082905060005b8260040180549050811015610c705783836004018281548110610c1257610c11611dbe565b5b906000526020600020015403610c5d576040517f08c379a0000000000000000000000000000000000000000000000000000000008152600401610c549061215e565b60405180910390fd5b8080610c6890611e1c565b915050610bec565b506000805b8360010180549050811015610d4657836001018181548110610c9a57610c99611dbe565b5b90600052602060002001548603610d3357600191506001846005018281548110610cc757610cc6611dbe565b5b906000526020600020016000828254610ce0919061217e565b92505081905550836004018390806001815401808255809150506001900390600052602060002001600090919091909150556001846003016000828254610d27919061217e565b92505081905550610d46565b8080610d3e90611e1c565b915050610c75565b5080610d87576040517f08c379a0000000000000000000000000000000000000000000000000000000008152600401610d7e90612224565b60405180910390fd5b505050505050565b60008181548110610d9f57600080fd5b9060005260206000209060070201600091509050806000018054610dc290611d8d565b80601f0160208091040260200160405190810160405280929190818152602001828054610dee90611d8d565b8015610e3b5780601f10610e1057610100808354040283529160200191610e3b565b820191906000526020600020905b815481529060010190602001808311610e1e57829003601f168201915b5050505050908060030154908060060160009054906101000a900460ff16908060060160019054906101000a900460ff16905084565b80600260009054906101000a900473ffffffffffffffffffffffffffffffffffffffff1673ffffffffffffffffffffffffffffffffffffffff163373ffffffffffffffffffffffffffffffffffffffff1614610f5c576000805b600180549050811015610f19578260018281548110610eed57610eec611dbe565b5b906000526020600020015403610f065760019150610f19565b8080610f1190611e1c565b915050610ecb565b5080610f5a576040517f08c379a0000000000000000000000000000000000000000000000000000000008152600401610f5190611ed6565b60405180910390fd5b505b6000604051806101000160405280868152602001858152602001600067ffffffffffffffff811115610f9157610f90611ac5565b5b604051908082528060200260200182016040528015610fbf5781602001602082028036833780820191505090505b50815260200160008152602001600067ffffffffffffffff811115610fe757610fe6611ac5565b5b6040519080825280602002602001820160405280156110155781602001602082028036833780820191505090505b508152602001855167ffffffffffffffff81111561103657611035611ac5565b5b6040519080825280602002602001820160405280156110645781602001602082028036833780820191505090505b50815260200160001515815260200160001515815250908060018154018082558091505060019003906000526020600020906007020160009091909190915060008201518160000190816110b891906123f0565b5060208201518160010190805190602001906110d592919061155f565b5060408201518160020190805190602001906110f292919061155f565b5060608201518160030155608082015181600401908051906020019061111992919061155f565b5060a082015181600501908051906020019061113692919061155f565b5060c08201518160060160006101000a81548160ff02191690831515021790555060e08201518160060160016101000a81548160ff021916908315150217905550505050505050565b6001818154811061118f57600080fd5b906000526020600020016000915090505481565b60008054905082106111ea576040517f08c379a00000000000000000000000000000000000000000000000000000000081526004016111e190611fae565b60405180910390fd5b600015156000838154811061120257611201611dbe565b5b906000526020600020906007020160060160009054906101000a900460ff16151514611263576040517f08c379a000000000000000000000000000000000000000000000000000000000815260040161125a9061201a565b60405180910390fd5b600080838154811061127857611277611dbe565b5b9060005260206000209060070201905060005b816002018054905081101561130f57828260020182815481106112b1576112b0611dbe565b5b9060005260206000200154036112fc576040517f08c379a00000000000000000000000000000000000000000000000000000000081526004016112f39061250e565b60405180910390fd5b808061130790611e1c565b91505061128b565b5080600201829080600181540180825580915050600190039060005260206000200160009091909190915055505050565b80600260009054906101000a900473ffffffffffffffffffffffffffffffffffffffff1673ffffffffffffffffffffffffffffffffffffffff163373ffffffffffffffffffffffffffffffffffffffff161461142b576000805b6001805490508110156113e85782600182815481106113bc576113bb611dbe565b5b9060005260206000200154036113d557600191506113e8565b80806113e090611e1c565b91505061139a565b5080611429576040517f08c379a000000000000000000000000000000000000000000000000000000000815260040161142090611ed6565b60405180910390fd5b505b6000805490508310611472576040517f08c379a000000000000000000000000000000000000000000000000000000000815260040161146990611fae565b60405180910390fd5b6000838154811061148657611485611dbe565b5b90600052602060002090600702016001018054905067ffffffffffffffff8111156114b4576114b3611ac5565b5b6040519080825280602002602001820160405280156114e25781602001602082028036833780820191505090505b50600084815481106114f7576114f6611dbe565b5b9060005260206000209060070201600501908051906020019061151b92919061155f565b5060016000848154811061153257611531611dbe565b5b906000526020600020906007020160060160006101000a81548160ff021916908315150217905550505050565b82805482825590600052602060002090810192821561159b579160200282015b8281111561159a57825182559160200191906001019061157f565b5b5090506115a891906115ac565b5090565b5b808211156115c55760008160009055506001016115ad565b5090565b600081519050919050565b600082825260208201905092915050565b6000819050602082019050919050565b600081519050919050565b600082825260208201905092915050565b60005b8381101561162f578082015181840152602081019050611614565b60008484015250505050565b6000601f19601f8301169050919050565b6000611657826115f5565b6116618185611600565b9350611671818560208601611611565b61167a8161163b565b840191505092915050565b600081519050919050565b600082825260208201905092915050565b6000819050602082019050919050565b6000819050919050565b6116c4816116b1565b82525050565b60006116d683836116bb565b60208301905092915050565b6000602082019050919050565b60006116fa82611685565b6117048185611690565b935061170f836116a1565b8060005b8381101561174057815161172788826116ca565b9750611732836116e2565b925050600181019050611713565b5085935050505092915050565b60008115159050919050565b6117628161174d565b82525050565b6000610100830160008301518482036000860152611786828261164c565b915050602083015184820360208601526117a082826116ef565b915050604083015184820360408601526117ba82826116ef565b91505060608301516117cf60608601826116bb565b50608083015184820360808601526117e782826116ef565b91505060a083015184820360a086015261180182826116ef565b91505060c083015161181660c0860182611759565b5060e083015161182960e0860182611759565b508091505092915050565b60006118408383611768565b905092915050565b6000602082019050919050565b6000611860826115c9565b61186a81856115d4565b93508360208202850161187c856115e5565b8060005b858110156118b857848403895281516118998582611834565b94506118a483611848565b925060208a01995050600181019050611880565b50829750879550505050505092915050565b600060208201905081810360008301526118e48184611855565b905092915050565b6000604051905090565b600080fd5b600080fd5b611909816116b1565b811461191457600080fd5b50565b60008135905061192681611900565b92915050565b600060208284031215611942576119416118f6565b5b600061195084828501611917565b91505092915050565b6119628161174d565b82525050565b600060208201905061197d6000830184611959565b92915050565b6000806040838503121561199a576119996118f6565b5b60006119a885828601611917565b92505060206119b985828601611917565b9150509250929050565b6000806000606084860312156119dc576119db6118f6565b5b60006119ea86828701611917565b93505060206119fb86828701611917565b9250506040611a0c86828701611917565b9150509250925092565b600082825260208201905092915050565b6000611a32826115f5565b611a3c8185611a16565b9350611a4c818560208601611611565b611a558161163b565b840191505092915050565b611a69816116b1565b82525050565b60006080820190508181036000830152611a898187611a27565b9050611a986020830186611a60565b611aa56040830185611959565b611ab26060830184611959565b95945050505050565b600080fd5b600080fd5b7f4e487b7100000000000000000000000000000000000000000000000000000000600052604160045260246000fd5b611afd8261163b565b810181811067ffffffffffffffff82111715611b1c57611b1b611ac5565b5b80604052505050565b6000611b2f6118ec565b9050611b3b8282611af4565b919050565b600067ffffffffffffffff821115611b5b57611b5a611ac5565b5b611b648261163b565b9050602081019050919050565b82818337600083830152505050565b6000611b93611b8e84611b40565b611b25565b905082815260208101848484011115611baf57611bae611ac0565b5b611bba848285611b71565b509392505050565b600082601f830112611bd757611bd6611abb565b5b8135611be7848260208601611b80565b91505092915050565b600067ffffffffffffffff821115611c0b57611c0a611ac5565b5b602082029050602081019050919050565b600080fd5b6000611c34611c2f84611bf0565b611b25565b90508083825260208201905060208402830185811115611c5757611c56611c1c565b5b835b81811015611c805780611c6c8882611917565b845260208401935050602081019050611c59565b5050509392505050565b600082601f830112611c9f57611c9e611abb565b5b8135611caf848260208601611c21565b91505092915050565b600080600060608486031215611cd157611cd06118f6565b5b600084013567ffffffffffffffff811115611cef57611cee6118fb565b5b611cfb86828701611bc2565b935050602084013567ffffffffffffffff811115611d1c57611d1b6118fb565b5b611d2886828701611c8a565b9250506040611d3986828701611917565b9150509250925092565b6000602082019050611d586000830184611a60565b92915050565b7f4e487b7100000000000000000000000000000000000000000000000000000000600052602260045260246000fd5b60006002820490506001821680611da557607f821691505b602082108103611db857611db7611d5e565b5b50919050565b7f4e487b7100000000000000000000000000000000000000000000000000000000600052603260045260246000fd5b7f4e487b7100000000000000000000000000000000000000000000000000000000600052601160045260246000fd5b6000611e27826116b1565b91507fffffffffffffffffffffffffffffffffffffffffffffffffffffffffffffffff8203611e5957611e58611ded565b5b600182019050919050565b7f596f7520617265206e6f7420616c6c6f77656420746f20706572666f726d207460008201527f68697320616374696f6e00000000000000000000000000000000000000000000602082015250565b6000611ec0602a83611a16565b9150611ecb82611e64565b604082019050919050565b60006020820190508181036000830152611eef81611eb3565b9050919050565b7f4f776e657220616c726561647920657869737473000000000000000000000000600082015250565b6000611f2c601483611a16565b9150611f3782611ef6565b602082019050919050565b60006020820190508181036000830152611f5b81611f1f565b9050919050565b7f496e76616c696420636f6e7465737420696e6465780000000000000000000000600082015250565b6000611f98601583611a16565b9150611fa382611f62565b602082019050919050565b60006020820190508181036000830152611fc781611f8b565b9050919050565b7f636f6e7465737420616c72656164792073746172746564000000000000000000600082015250565b6000612004601783611a16565b915061200f82611fce565b602082019050919050565b6000602082019050818103600083015261203381611ff7565b9050919050565b7f616c72656164792070726573656e740000000000000000000000000000000000600082015250565b6000612070600f83611a16565b915061207b8261203a565b602082019050919050565b6000602082019050818103600083015261209f81612063565b9050919050565b7f436f6e74657374206e6f74207374617274656420796574212121000000000000600082015250565b60006120dc601a83611a16565b91506120e7826120a6565b602082019050919050565b6000602082019050818103600083015261210b816120cf565b9050919050565b7f596f75206861766520616c726561647920766f74656400000000000000000000600082015250565b6000612148601683611a16565b915061215382612112565b602082019050919050565b600060208201905081810360008301526121778161213b565b9050919050565b6000612189826116b1565b9150612194836116b1565b92508282019050808211156121ac576121ab611ded565b5b92915050565b7f5061727469636970616e7420646f6573206e6f7420657869737420696e20746860008201527f697320636f6e7465737400000000000000000000000000000000000000000000602082015250565b600061220e602a83611a16565b9150612219826121b2565b604082019050919050565b6000602082019050818103600083015261223d81612201565b9050919050565b60008190508160005260206000209050919050565b60006020601f8301049050919050565b600082821b905092915050565b6000600883026122a67fffffffffffffffffffffffffffffffffffffffffffffffffffffffffffffffff82612269565b6122b08683612269565b95508019841693508086168417925050509392505050565b6000819050919050565b60006122ed6122e86122e3846116b1565b6122c8565b6116b1565b9050919050565b6000819050919050565b612307836122d2565b61231b612313826122f4565b848454612276565b825550505050565b600090565b612330612323565b61233b8184846122fe565b505050565b5b8181101561235f57612354600082612328565b600181019050612341565b5050565b601f8211156123a45761237581612244565b61237e84612259565b8101602085101561238d578190505b6123a161239985612259565b830182612340565b50505b505050565b600082821c905092915050565b60006123c7600019846008026123a9565b1980831691505092915050565b60006123e083836123b6565b9150826002028217905092915050565b6123f9826115f5565b67ffffffffffffffff81111561241257612411611ac5565b5b61241c8254611d8d565b612427828285612363565b600060209050601f83116001811461245a5760008415612448578287015190505b61245285826123d4565b8655506124ba565b601f19841661246886612244565b60005b828110156124905784890151825560018201915060208501945060208101905061246b565b868310156124ad57848901516124a9601f8916826123b6565b8355505b6001600288020188555050505b505050505050565b7f616c72656164792070726573656e742072657175657374000000000000000000600082015250565b60006124f8601783611a16565b9150612503826124c2565b602082019050919050565b60006020820190508181036000830152612527816124eb565b905091905056fea2646970667358221220fec359c7360f871fb0763a4e8a2f652ab5911112de74491957384327d8f835a164736f6c63430008110033",
  "linkReferences": {},
  "deployedLinkReferences": {}
}